Trace file /opt/oracle/diag/rdbms/orclcdb/ORCLCDB/trace/ORCLCDB_ora_1840.trc
Oracle Database 21c Enterprise Edition Release 21.0.0.0.0 - Production
Version 21.3.0.0.0
Build label:    RDBMS_21.3.0.0.0_LINUX.X64_210727
ORACLE_HOME:    /opt/oracle/product/21c/dbhome_1
System name:	Linux
Node name:	4525d4035a79
Release:	6.8.0-1044-aws
Version:	#46~22.04.1-Ubuntu SMP Tue Dec  2 12:52:18 UTC 2025
Machine:	x86_64
VM name:	KVM CPUID feature flags: 0x010000fb
Instance name: ORCLCDB
Redo thread mounted by this instance: 1
Oracle process number: 76
Unix process pid: 1840, NID: 4026532228, image: oracle@4525d4035a79


*** 2025-12-16T09:06:31.277877+00:00 (ORCLPDB1(3))
*** SESSION ID:(27.48835) 2025-12-16T09:06:31.277900+00:00
*** CLIENT ID:() 2025-12-16T09:06:31.277908+00:00
*** SERVICE NAME:(orclpdb1) 2025-12-16T09:06:31.277916+00:00
*** MODULE NAME:(Oracle SQL Developer for VS Code/25.3.2) 2025-12-16T09:06:31.277924+00:00
*** ACTION NAME:(VnvEJ97wB0O0zAt24mClmw) 2025-12-16T09:06:31.277931+00:00
*** CLIENT DRIVER:(jdbcthin : 23.7.0.25.01) 2025-12-16T09:06:31.277939+00:00
*** CONTAINER ID:(3) 2025-12-16T09:06:31.277946+00:00
*** CLIENT IP:(37.222.191.167) 2025-12-16T09:06:31.277960+00:00
*** CONNECTION ID:(5cI3ZT70S/G6n1Rl/vbvUQ==) 2025-12-16T09:06:31.277968+00:00
 
Start dump data blocks tsn: 5 file#:12 minblk 262 maxblk 262
Block dump from cache:
Dump of buffer cache at level 3 for pdb=3 tsn=5 rdba=50331910


BH (0x174f6dbc0) file#: 12 rdba: 0x03000106 (12/262) class: 1 ba: 0x1742d4000
  set: 10 pool: 3 bsz: 8192 bsi: 0 sflg: 2 pwc: 0,28
  dbwrid: 0 obj: 76174 objn: 76174 tsn: [3/5] afn: 12 hint: f
  hash: [0x8f827190,0x8f827190] lru: [0x172f714e8,0x175fcf430]
  ckptq: [NULL] fileq: [NULL]
  objq: [0x72150bc0,0x172f717e0] objaq: [0x72150bb0,0x172f717f0] qhead: 0x72150ba0
  st: XCURRENT md: NULL fpin: 'kdswh02: kdsgrp' fscn: 0x2b4062 tch: 9
  flags:
  LRBA: [0x0.0.0] LSCN: [0x0] HSCN: [0x0] HSUB: [65535] 
  Printing buffer operation history (latest change first): (cnt 5)
  01. sid:11 L144:zibmlt:mk:EXCL      02. sid:11 L210:zibmlt:bic:FSQ    
  03. sid:11 L122:zgb:set:st          04. sid:11 L830:olq1:clr:WRT+CKT  
  05. sid:11 L951:zgb:lnk:objq        06. sid:11 L372:zgb:set:MEXCL     
  07. sid:11 L123:zgb:no:FEN          08. sid:11 L083:zgb:ent:fn        
  09. sid:11 L896:z_mkfr:ulnk:objq    10. sid:11 L085:zgm:ent:fn        
  11. sid:11 L122:zgb:set:st          12. sid:11 L830:olq1:clr:WRT+CKT  
  13. sid:11 L951:zgb:lnk:objq        14. sid:11 L372:zgb:set:MEXCL     
  buffer tsn: 5 rdba: 0x03000106 (12/262)
  scn: 0x2a335a seq: 0x01 flg: 0x06 tail: 0x335a0601
  frmt: 0x02 chkval: 0x5cfd type: 0x06=trans data
Hex dump of block: st=0, typ_found=1
Dump of memory from 0x00000001742D4000 to 0x00000001742D6000
1742D4000 0000A206 03000106 002A335A 06010000  [........Z3*.....]
1742D4010 00005CFD 00040001 0001298E 002A330C  [.\.......)...3*.]
1742D4020 00008000 00321F02 03000100 00150007  [......2.........]
1742D4030 00000282 024003EC 005500B7 00002009  [......@...U.. ..]
1742D4040 002A335A 00000000 00000000 00000000  [Z3*.............]
1742D4050 00000000 00000000 00000000 00000000  [................]
1742D4060 00000000 00090100 0024FFFF 0536055A  [..........$.Z.6.]
1742D4070 00000536 1CEA0009 163E199B 10461397  [6.........>...F.]
1742D4080 0A140D77 055A07CD 05AC0648 04A40540  [w.....Z.H...@...]
1742D4090 03640408 02A402E8 020C0248 016801AC  [..d.....H.....h.]
1742D40A0 00C40108 00000000 00000000 00000000  [................]
1742D40B0 00000000 00000000 00000000 00000000  [................]
        Repeat 1 times
1742D40D0 00000000 00000000 00180008 00140010  [................]
1742D40E0 00002564 00002564 00000001 00000000  [d%..d%..........]
1742D40F0 3F04010B 028D0000 00100D02 00030003  [...?............]
1742D4100 0240043C 00030111 0100166B 0100A342  [<.@.....k...B...]
1742D4110 010312FA 00000001 2200008C 0018000A  [..........."....]
1742D4120 00140010 00000015 0000256F 0000256F  [........o%..o%..]
1742D4130 00000001 00000000 3E04160A 028D0000  [...........>....]
1742D4140 00000D02 00000000 0240043C 003D0111  [........<.@...=.]
1742D4150 00010203 0100A2FA 0100B1FA 00007FFC  [................]
1742D4160 61AF0000 0817C203 1403C506 020A233F  [...a........?#..]
1742D4170 C50603C1 4C135309 0000003C 00180008  [.....S.L<.......]
1742D4180 00140010 00002568 00002568 00000001  [....h%..h%......]
1742D4190 00000000 3D04010B 028D0000 00100D02  [.......=........]
1742D41A0 00030003 0240043C 003C0111 0100B8D3  [....<.@...<.....]
1742D41B0 0100A2F2 010312FA 00000001 22000001  [..............."]
1742D41C0 0018000A 00140010 00000015 0000256F  [............o%..]
1742D41D0 0000256F 00000001 00000000 3C04160A  [o%.............<]
1742D41E0 028D0000 00000D02 00000000 0240043C  [............<.@.]
1742D41F0 003B0111 00010203 0100A2FA 0100B1FA  [..;.............]
1742D4200 00007FFC 61AF0000 0817C203 1403C506  [.......a........]
1742D4210 020A233F C50602C1 4C135309 0000003C  [?#.......S.L<...]
1742D4220 00180008 00140008 00002568 00002568  [........h%..h%..]
1742D4230 00000001 00000000 3B04010B 028D0000  [...........;....]
1742D4240 00100D03 00030003 0100B8D3 0100A2F2  [................]
1742D4250 010312FA 00000001 22000000 0018000A  [..........."....]
1742D4260 00140010 00000014 0000256F 0000256F  [........o%..o%..]
1742D4270 00000001 00000000 3A04160A 028D0000  [...........:....]
1742D4280 00000D02 00000000 0240043C 00020111  [........<.@.....]
1742D4290 00010203 0100A2FA 0100B1FA 00007FFC  [................]
1742D42A0 61AF0000 0817C203 1403C506 010A233F  [...a........?#..]
1742D42B0 09C50680 3C4C1353 00180008 00140010  [....S.L<........]
1742D42C0 00002568 00002568 00000001 00000000  [h%..h%..........]
1742D42D0 3904010B 028D0000 00100D02 00030003  [...9............]
1742D42E0 0240043C 00010111 0100B8CF 0100A2F2  [<.@.............]
1742D42F0 010312FA 00000001 00000007 0018000C  [................]
1742D4300 001D0020 00140002 00002555 00002555  [ .......U%..U%..]
1742D4310 00000001 00000000 3804010B 028D0000  [...........8....]
1742D4320 61660D04 000076ED 00110001 0000026B  [..fa.v......k...]
1742D4330 0240025A 003A00C3 80008000 0029F69D  [Z.@...:.......).]
1742D4340 0100A79E 0100A37A 010512FA 00000001  [....z...........]
1742D4350 006B002C 01080004 0000FFFF 00000000  [,.k.............]
1742D4360 00000004 0015DABE 3F690000 0100B4BC  [..........i?....]
1742D4370 1602C001 1D13C203 0018001A 001D0010  [................]
1742D4380 00030010 00020003 00020002 00020002  [................]
1742D4390 00000013 0000255F 0000255F 00000001  [...._%.._%......]
1742D43A0 00000000 3704010B 028D0000 61680D02  [.......7......ha]
1742D43B0 000076ED 0240043C 00370111 0100A789  [.v..<.@...7.....]
1742D43C0 0100A332 010512FA 00000001 006B002C  [2...........,.k.]
1742D43D0 081A003E 00000001 00000000 00050003  [>...............]
1742D43E0 000D0007 0011000F 00190013 00411AC2  [..............A.]
1742D43F0 006119C2 000035C1 000003C1 000003C1  [..a..5..........]
1742D4400 000003C1 000003C1 35323032 2D32312D  [........2025-12-]
1742D4410 302F3531 35343A37 0037353A 00180018  [15/07:45:57.....]
1742D4420 001D0010 0003000E 00020003 00020002  [................]
1742D4430 00130002 0000255F 0000255F 00000001  [...._%.._%......]
1742D4440 00000000 3604010B 028D0000 61680D02  [.......6......ha]
1742D4450 000076ED 0240043C 00360111 0100A789  [.v..<.@...6.....]
1742D4460 0100A332 010512FA 00000001 006B002C  [2...........,.k.]
1742D4470 071A003D 00000000 00000000 00050003  [=...............]
1742D4480 000F000D 00130011 00000019 002D21C2  [.............!-.]
1742D4490 00511EC2 000015C1 000015C1 000015C1  [..Q.............]
1742D44A0 000015C1 35323032 2D32312D 302F3531  [....2025-12-15/0]
1742D44B0 35303A39 0030343A 00180018 001D0010  [9:05:40.........]
1742D44C0 0003000E 00020003 00020002 00130002  [................]
1742D44D0 0000255F 0000255F 00000001 00000000  [_%.._%..........]
1742D44E0 3504010B 028D0000 61680D02 000076ED  [...5......ha.v..]
1742D44F0 0240043C 00340111 0100A789 0100A332  [<.@...4.....2...]
1742D4500 010512FA 00000001 006B002C 071A0039  [........,.k.9...]
1742D4510 00000000 00000000 00050003 000F000D  [................]
1742D4520 00130011 00000019 001921C2 004B28C2  [.........!...(K.]
1742D4530 000015C1 000015C1 000015C1 000015C1  [................]
1742D4540 35323032 2D32312D 302F3531 35303A39  [2025-12-15/09:05]
1742D4550 0030343A 0018000C 001D0010 00140002  [:40.............]
1742D4560 00002555 00002555 00000001 00000000  [U%..U%..........]
1742D4570 3404010B 028D0000 61660D02 000076ED  [...4......fa.v..]
1742D4580 0240043C 00310111 0100A799 0100A37A  [<.@...1.....z...]
1742D4590 010512FA 00000002 006B002C 0108000E  [........,.k.....]
1742D45A0 00000000 00000000 00000004 0015DABE  [................]
1742D45B0 3F690000 0100A2C8 1602C001 012CC203  [..i?..........,.]
1742D45C0 0AC1020B 5255430E 4A4E475F 51554353  [.....CUR_GNJSCUQ]
1742D45D0 11465658 206F6944 20796F76 7A6E6F67  [XVF.Dio voy gonz]
1742D45E0 656CA1C3 09C1027A 0404C102 300412C2  [..lez..........0]
1742D45F0 620EC204 0158FE0F 207A6F56 6172696D  [...b..X.Voz mira]
1742D4600 65206164 206F7473 61747365 520A2E72  [da esto estar..R]
1742D4610 726F6665 6620616D 61637369 7267206C  [eforma fiscal gr]
1742D4620 65646E61 62696C20 6D206572 726F6E65  [ande libre menor]
1742D4630 74636120 64697669 0A2E6461 61632050  [ actividad..P ca]
1742D4640 72206F62 74207965 72616D6F 6F696420  [bo rey tomar dio]
1742D4650 616C6220 2E61636E 67654E0A 63206F72  [ blanca..Negro c]
1742D4660 65736E6F 72697567 6E656320 206F7274  [onseguir centro ]
1742D4670 70736F68 6C617469 6E616820 65646120  [hospital han ade]
1742D4680 746E616C 6C6C2065 B3C36765 694E0A2E  [lante lleg....Ni]
1742D4690 656C6576 67612073 65206175 736F6C6C  [veles agua ellos]
1742D46A0 6E6F7020 69207265 6974736E 69637574  [ poner instituci]
1742D46B0 73656E6F 64656D20 2E736F69 6F72500A  [ones medios..Pro]
1742D46C0 736F6970 65757320 206FB1C3 C36C6F70  [pios sue..o pol.]
1742D46D0 636974AD 76207361 726F6C61 74207365  [.ticas valores t]
1742D46E0 69626D61 2E6EA9C3 72614C0A 74206F67  [ambi..n..Largo t]
1742D46F0 736F646F 6E6F6320 74697473 C3696375  [odos constituci.]
1742D4700 6A206EB3 6576B3C3 2E73656E 6F73450A  [.n j..venes..Eso]
1742D4710 68636F20 7274206F A9C37661 65642073  [ ocho trav..s de]
1742D4720 2E6E6562 6E614D0A 206C6575 736F7365  [ben..Manuel esos]
1742D4730 63656420 72207269 C372646F 657567AD  [ decir rodr..gue]
1742D4740 C364207A 65646EB3 65696320 2E617472  [z d..nde cierta.]
1742D4750 7061434A 64696361 64206461 6F657365  [JCapacidad deseo]
1742D4760 72656820 6F6E616D 746C6120 50202E61  [ hermano alta. P]
1742D4770 617A616C 79756D20 65696420 48202E7A  [laza muy diez. H]
1742D4780 ADC36361 6F702061 74ADC36C 20616369  [ac..a pol..tica ]
1742D4790 696D6163 75206F6E 482E616E 70736544  [camino una.HDesp]
1742D47A0 73A9C375 67726F20 7A696E61 C3696361  [u..s organizaci.]
1742D47B0 70206EB3 20656E6F 74726170 70696369  [.n pone particip]
1742D47C0 C3696361 64206EB3 65647365 72757320  [aci..n desde sur]
1742D47D0 6449202E 20736165 72656361 73206163  [. Ideas acerca s]
1742D47E0 2E736965 726F484C 73207361 61B1C365  [eis.LHoras se..a]
1742D47F0 20B3C36C 6D697270 20617265 65746E69  [l.. primera inte]
1742D4800 726F6972 72A1C320 70206165 6F206569  [rior ..rea pie o]
1742D4810 73617262 63656820 202E6F68 20657546  [bras hecho. Fue ]
1742D4820 74616574 73206F72 69662075 61727567  [teatro su figura]
1742D4830 0B012C2E 0E09C102 5F525543 34543336  [.,......CUR_63T4]
1742D4840 43444E57 5112424B 20A9C375 72656361  [WNDCKB.Qu.. acer]
1742D4850 73206163 6E616D65 19C10261 0403C102  [ca semana.......]
1742D4860 0C1007C2 3506C204 7550DF0A 6F6C6265  [.......5..Pueblo]
1742D4870 BAC36120 7270206E 6375646F 6C206F74  [ a..n producto l]
1742D4880 7420736F 61642065 20736F74 6F736570  [os te datos peso]
1742D4890 62617320 430A2E65 72646175 7566206F  [ sabe..Cuadro fu]
1742D48A0 6F727574 66696420 6963ADC3 6F74206C  [turo dif..cil to]
1742D48B0 7320616D 72756765 64616469 6E6F6320  [ma seguridad con]
1742D48C0 6D69636F 746E6569 756D206F 2E6F646E  [ocimiento mundo.]
1742D48D0 6265440A 73652065 B1C36170 78652061  [.Debe espa..a ex]
1742D48E0 676C6120 530A2E6F 72657075 20726F69  [ algo..Superior ]
1742D48F0 6F736170 70736520 65696365 73696420  [paso especie dis]
1742D4900 746E6974 6120736F 6E75676C 0A2E7361  [tintos algunas..]
1742D4910 A9C36D41 61636972 65757620 2065766C  [Am..rica vuelve ]
1742D4920 746E616D 72656E65 6D6F6320 C37A6E65  [mantener comenz.]
1742D4930 616D20B3 61686372 73656420 6F6E6974  [. marcha destino]
1742D4940 616C6C20 6F64616D 6150732E 64697472  [ llamado.sPartid]
1742D4950 7620736F 6F747369 696E7520 20646164  [os visto unidad ]
1742D4960 6F6D656D 20616972 67726163 53202E6F  [memoria cargo. S]
1742D4970 6169636F 7274206C 6A616261 6D207261  [ocial trabajar m]
1742D4980 65722069 72657563 202E6F64 69727241  [i recuerdo. Arri]
1742D4990 63206162 746E6569 6F67206F A1C37A6E  [ba ciento gonz..]
1742D49A0 207A656C 6D697270 20617265 7473A9C3  [lez primera ..st]
1742D49B0 73652065 6320736F 61737561 2049672E  [e esos causa.gI ]
1742D49C0 6D726F66 C3696361 64206EB3 7361ADC3  [formaci..n d..as]
1742D49D0 72656620 646E616E 7361206F 6169636F  [ fernando asocia]
1742D49E0 B3C36963 6F63206E 6D75736E 756E206F  [ci..n consumo nu]
1742D49F0 72747365 6F682061 202E6172 6F6C6156  [estra hora. Valo]
1742D4A00 20736572 73617274 6D6F7420 65207261  [res tras tomar e]
1742D4A10 6E6F746E 20736563 61726170 6C696D20  [ntonces para mil]
1742D4A20 72617469 6944522E 63636572 6EB3C369  [itar.RDirecci..n]
1742D4A30 726F6620 6963616D 206EB3C3 73756163  [ formaci..n caus]
1742D4A40 75732061 73657570 65206F74 736F7473  [a supuesto estos]
1742D4A50 64616E20 65732061 202E6E61 72657547  [ nada sean. Guer]
1742D4A60 6D206172 76207975 72206F69 6F747365  [ra muy vio resto]
1742D4A70 61756320 2E6F7264 020B012C 430E08C1  [ cuadro.,......C]
1742D4A80 385F5255 5642454A 315A4347 75471F57  [UR_8JEBVGCZ1W.Gu]
1742D4A90 61727265 706F7020 72616C75 72616D20  [erra popular mar]
1742D4AA0 6EADC374 70757320 6F697265 3DC10272  [t..n superior..=]
1742D4AB0 0402C102 4E420EC2 120CC204 0204FE5A  [......BN....Z...]
1742D4AC0 73726550 73616E6F 72616720 61ADC363  [Personas garc..a]
1742D4AD0 6F727020 74636579 6820736F 6C207961  [ proyectos hay l]
1742D4AE0 64207A75 20736F69 6E756572 6EB3C369  [uz dios reuni..n]
1742D4AF0 64616E20 500A2E61 ADC36C6F 61636974  [ nada..Pol..tica]
1742D4B00 6D616A20 2073A1C3 6F746164 6F632073  [ jam..s datos co]
1742D4B10 6572676E 73206F73 61B1C365 2EB3C36C  [ngreso se..al...]
1742D4B20 63754D0A 61206168 20657472 72657571  [.Mucha arte quer]
1742D4B30 2061ADC3 6566656A 6F500A2E 74ADC36C  [..a jefe..Pol..t]
1742D4B40 20616369 72657571 2061ADC3 C36C6F70  [ica quer..a pol.]
1742D4B50 636974AD 70207361 73ADC361 73696D20  [.ticas pa..s mis]
1742D4B60 65696D20 6172746E 72672073 61696361  [ mientras gracia]
1742D4B70 72702073 6365796F 2E736F74 6972540A  [s proyectos..Tri]
1742D4B80 616E7562 656D206C 20726F6A 61707365  [bunal mejor espa]
1742D4B90 6C6FB1C3 6F682061 61732079 6164696C  [..ola hoy salida]
1742D4BA0 6F727020 6D656C62 6D207361 6D69766F  [ problemas movim]
1742D4BB0 746E6569 6570206F 6E6F7372 0A2E7361  [iento personas..]
1742D4BC0 61636F42 616C7020 6C20617A 6572206F  [Boca plaza lo re]
1742D4BD0 63206C61 746E6569 6F68206F 20736172  [al ciento horas ]
1742D4BE0 73726570 73616E6F 69540A2E 61727265  [personas..Tierra]
1742D4BF0 C3727020 697463A1 73206163 74726575  [ pr..ctica suert]
1742D4C00 61702065 65636572 626D6520 6F677261  [e parece embargo]
1742D4C10 6F530A2E 64656963 6D206461 61696465  [..Sociedad media]
1742D4C20 64697620 550A2E61 2073616E 746E756A  [ vida..Unas junt]
1742D4C30 6176206F 20726F6C 68636F6E 61702065  [o valor noche pa]
1742D4C40 6573ADC3 6C652073 2E73616C 7069540A  [..ses ellas..Tip]
1742D4C50 6320736F 6F6DB3C3 6E6F6320 73657267  [os c..mo congres]
1742D4C60 656E206F 206F7267 736E6F63 2E6F6A65  [o negro consejo.]
1742D4C70 7065520A 6C62BAC3 20616369 746E6173  [.Rep..blica sant]
1742D4C80 696E2061 6E75676E 61702061 2E657472  [a ninguna parte.]
1742D4C90 6665440A 61736E65 656E6520 73206F72  [.Defensa enero s]
1742D4CA0 70206E6F 696D7265 66206574 6F646E6F  [on permite fondo]
1742D4CB0 69786520 6E657473 20616963 65726564  [ existencia dere]
1742D4CC0 2E616863 7275537C 6E657420 206F6469  [cha.|Sur tenido ]
1742D4CD0 6E6F6365 696DB3C3 6D206163 74736575  [econ..mica muest]
1742D4CE0 64206172 65647365 7548202E 616E616D  [ra desde. Humana]
1742D4CF0 C36A6520 696372A9 73206F74 6169636F  [ ej..rcito socia]
1742D4D00 6573206C C3722072 6D6967A9 70206E65  [l ser r..gimen p]
1742D4D10 ADC36C6F 6F636974 6F6D6120 61682072  [ol..tico amor ha]
1742D4D20 202E6563 74726150 206F6469 61726F68  [ce. Partido hora]
1742D4D30 756D2073 736F6863 69727020 6172656D  [s muchos primera]
1742D4D40 72505F2E 61736E65 69727020 6172656D  [._Prensa primera]
1742D4D50 70697420 6573206F 726FB1C3 63657220  [ tipo se..or rec]
1742D4D60 64726575 6574206F 206F676E 6C656970  [uerdo tengo piel]
1742D4D70 6F56202E C369766C 7A6920B3 65697571  [. Volvi.. izquie]
1742D4D80 20616472 C36D6564 632073A1 65746E6F  [rda dem..s conte]
1742D4D90 6F64696E 74756120 6469726F 73656461  [nido autoridades]
1742D4DA0 C350392E 696C62BA 63206F63 206F6D6F  [.9P..blico como ]
1742D4DB0 736F6A6F 62656420 2E6F6469 B3C34A20  [ojos debido. J..]
1742D4DC0 656E6576 75702073 61747265 74736520  [venes puerta est]
1742D4DD0 736F6461 73656D20 2C2E7365 C1020B01  [ados meses.,....]
1742D4DE0 55430E07 58465F52 4D4C4B43 5A39424F  [..CUR_FXCKLMOB9Z]
1742D4DF0 6569542A 206E656E C3636564 712061AD  [*Tienen dec..a q]
1742D4E00 C3726575 702061AD 636E6972 6C617069  [uer..a principal]
1742D4E10 73207365 6569636F 02646164 C10229C1  [es sociedad..)..]
1742D4E20 13C20403 C2045E39 FE315F10 7548014D  [....9^..._1.M.Hu]
1742D4E30 6F6E616D A9C36D20 6F636964 66696420  [mano m..dico dif]
1742D4E40 6E657265 20616963 646F7270 6F746375  [erencia producto]
1742D4E50 450A2E73 68206173 6970736F 206C6174  [s..Esa hospital ]
1742D4E60 6EADC36C 70206165 A1C36620 206C6963  [l..nea p f..cil ]
1742D4E70 6F6A6162 65530A2E 6F727567 69786520  [bajo..Seguro exi]
1742D4E80 6E657473 6C657020 7563ADC3 7220616C  [sten pel..cula r]
1742D4E90 BAC37065 63696C62 616D2061 69726574  [ep..blica materi]
1742D4EA0 0A2E6C61 6D616C4C 656D2061 20616964  [al..Llama media ]
1742D4EB0 6576696E 2073656C 72617563 0A2E6F74  [niveles cuarto..]
1742D4EC0 616E6946 6E656D6C 70206574 20656F73  [Finalmente psoe ]
1742D4ED0 6F676C61 20707020 6F747365 450A2E73  [algo pp estos..E]
1742D4EE0 6572746E 796F7320 72726120 20616269  [ntre soy arriba ]
1742D4EF0 75707573 6F747365 65696320 206F746E  [supuesto ciento ]
1742D4F00 2073656C 76726573 6F696369 4D0A2E73  [les servicios..M]
1742D4F10 626D6569 20736F72 69636361 206EB3C3  [iembros acci..n ]
1742D4F20 65636964 7365206E 61626174 616E7520  [dicen estaba una]
1742D4F30 62616820 0A2E7265 7264614D 656D2065  [ haber..Madre me]
1742D4F40 61646964 696E7520 2E736F64 20694D0A  [dida unidos..Mi ]
1742D4F50 72646F70 6420A1C3 74206E61 ADC36E65  [podr.. dan ten..]
1742D4F60 430A2E61 206C6175 C3646F70 652061AD  [a..Cual pod..a e]
1742D4F70 61206173 6975676C 792E6E65 69736F50  [sa alguien.yPosi]
1742D4F80 696C6962 20646164 6F747561 61646972  [bilidad autorida]
1742D4F90 20736564 6F646973 75716120 6320ADC3  [des sido aqu.. c]
1742D4FA0 65746E6F 6F64696E 69727420 616E7562  [ontenido tribuna]
1742D4FB0 49202E6C 20616564 636E6963 6564206F  [l. Idea cinco de]
1742D4FC0 68636572 6520736F 696C7078 20B3C363  [rechos explic.. ]
1742D4FD0 64ADC36C 71207265 C3726575 702061AD  [l..der quer..a p]
1742D4FE0 74726575 45202E61 70697571 2063206F  [uerta. Equipo c ]
1742D4FF0 61797563 72415F2E 61626972 61756320  [cuya._Arriba cua]
1742D5000 656E206C 69736563 20646164 20657566  [l necesidad fue ]
1742D5010 65746E61 6C612073 6EBAC367 66696420  [antes alg..n dif]
1742D5020 6E657265 20616963 6F747561 45202E72  [erencia autor. E]
1742D5030 6572746E 72657620 20646164 6E617266  [ntre verdad fran]
1742D5040 63736963 6163206F 63206973 20617361  [cisco casi casa ]
1742D5050 61647564 6F53542E 6C616963 61747369  [duda.TSocialista]
1742D5060 BAC36620 6C6F6274 72616220 6F6C6563  [ f..tbol barcelo]
1742D5070 7320616E 202E796F 206C6154 6E617266  [na soy. Tal fran]
1742D5080 20616963 74617274 65696D61 206F746E  [cia tratamiento ]
1742D5090 20726576 20A9C373 74736F63 696C2061  [ver s.. costa li]
1742D50A0 20657262 746C6166 012C2E61 06C1020B  [bre falta.,.....]
1742D50B0 5255430E 5145475F 594D5839 20415149  [.CUR_GEQ9XMYIQA ]
1742D50C0 696C6143 20646164 64756963 63206461  [Calidad ciudad c]
1742D50D0 74736E6F 63637572 6EB3C369 6C6F7320  [onstrucci..n sol]
1742D50E0 0209C102 C20405C1 04035011 492E0EC2  [.........P.....I]
1742D50F0 4A01EDFE 6F676575 706D6920 6174726F  [...Juego importa]
1742D5100 7365746E C3686120 656E20AD 69736563  [ntes ah.. necesi]
1742D5110 20646164 6F7A6968 626D6520 6F677261  [dad hizo embargo]
1742D5120 6C6F7020 6974ADC3 2E736163 6E69430A  [ pol..ticas..Cin]
1742D5130 70206F63 73ADC361 70736120 6F746365  [co pa..s aspecto]
1742D5140 73696D20 2E736F6D 6F704F0A 69636973  [ mismos..Oposici]
1742D5150 206EB3C3 61736170 70206F64 65666F72  [..n pasado profe]
1742D5160 6E6F6973 62206C61 636E616C 6964206F  [sional blanco di]
1742D5170 74636572 6E20726F 75676E69 6920616E  [rector ninguna i]
1742D5180 67A1C36D 73656E65 75420A2E 20616E65  [m..genes..Buena ]
1742D5190 7665756E 7563206F 7275746C 64206C61  [nuevo cultural d]
1742D51A0 65696369 6572626D 65756220 0A2E616E  [iciembre buena..]
1742D51B0 C3742049 617620BA 20736F6D 6F6A6162  [I t.. vamos bajo]
1742D51C0 73450A2E 61626174 72616D20 6EADC374  [..Estaba mart..n]
1742D51D0 63696420 66206E65 69636E75 2E6EB3C3  [ dicen funci..n.]
1742D51E0 7261430A 6E206F67 6C657669 75716120  [.Cargo nivel aqu]
1742D51F0 616C6C65 73612073 6169636F B3C36963  [ellas asociaci..]
1742D5200 6C6C206E 72616765 636E6520 746E6575  [n llegar encuent]
1742D5210 0A2E6172 75636E45 72746E65 6361206F  [ra..Encuentro ac]
1742D5220 B3C36963 756D206E 2072656A 696E696D  [ci..n mujer mini]
1742D5230 72657473 6D206F69 20617269 0A2E6C65  [sterio mira el..]
1742D5240 78A9C34D 206F6369 65626564 6D61206E  [M..xico deben am]
1742D5250 6972A9C3 73206163 63756C6F 6EB3C369  [..rica soluci..n]
1742D5260 79616820 61636F20 6E6F6973 0A2E7365  [ hay ocasiones..]
1742D5270 72656943 64206174 ADC36265 696D2061  [Cierta deb..a mi]
1742D5280 656C206C 69742079 6F706D65 73696420  [l ley tiempo dis]
1742D5290 746E6974 7420736F 706D6569 0A2E736F  [tintos tiempos..]
1742D52A0 70206E45 75706F72 61747365 726F6320  [En propuesta cor]
1742D52B0 70206574 78B3C372 206F6D69 7574616E  [te pr..ximo natu]
1742D52C0 206C6172 6F79616D 20736572 6F6A656C  [ral mayores lejo]
1742D52D0 6F632073 6974736E 69637574 2E6EB3C3  [s constituci..n.]
1742D52E0 72655391 69636976 6A20736F 69636975  [.Servicios juici]
1742D52F0 6568206F 20736F6D 636F7361 69636169  [o hemos asociaci]
1742D5300 206EB3C3 61707365 6C6FB1C3 61682061  [..n espa..ola ha]
1742D5310 202E6179 766C6F56 20B3C369 6E726F74  [ya. Volvi.. torn]
1742D5320 7270206F 69636E69 656C6170 61702073  [o principales pa]
1742D5330 64697472 7420736F 72746165 6F63206F  [rtidos teatro co]
1742D5340 6974736E 69637574 2E6EB3C3 6C6F5320  [nstituci..n. Sol]
1742D5350 C3696375 65206EB3 75206173 6F64696E  [uci..n esa unido]
1742D5360 65732073 72697567 20656C20 65766F6A  [s seguir le jove]
1742D5370 4E4F2E6E C3676E69 67206EBA C3637261  [n.ONing..n garc.]
1742D5380 732061AD 20616C6F 6F747561 61646972  [.a sola autorida]
1742D5390 20736564 636E6162 56202E6F 746C6575  [des banco. Vuelt]
1742D53A0 69662061 206C616E 6D726568 206F6E61  [a final hermano ]
1742D53B0 65666964 636E6572 65206169 6172746E  [diferencia entra]
1742D53C0 4D382E72 6C65646F 756D206F 736F6863  [r.8Modelo muchos]
1742D53D0 6D6F6320 6F70206F 2E72656E 74734520  [ como poner. Est]
1742D53E0 656D2065 69726F6D 6E652061 6E657563  [e memoria encuen]
1742D53F0 20617274 7567696D 2C2E6C65 C1020B01  [tra miguel.,....]
1742D5400 55430E05 39365F52 32465044 5938325A  [..CUR_69DPF2Z28Y]
1742D5410 6365522A 64726575 7361206F 74636570  [*Recuerdo aspect]
1742D5420 6172206F 656E6F7A 61642073 61682072  [o razones dar ha]
1742D5430 20726562 73BAC36D 02616369 C10229C1  [ber m..sica..)..]
1742D5440 09C20403 C2045261 FE1A0309 61480129  [....aR......).Ha]
1742D5450 20726563 63657263 65696D69 206F746E  [cer crecimiento ]
1742D5460 656E6567 656C6172 61682073 A1C37262  [generales habr..]
1742D5470 73616C20 6A656420 65207261 63657073  [ las dejar espec]
1742D5480 0A2E6569 C3706552 696C62BA C3206163  [ie..Rep..blica .]
1742D5490 63696EBA 6F702061 69636973 206EB3C3  [.nica posici..n ]
1742D54A0 6E657566 20736574 6F706974 73657220  [fuentes tipo res]
1742D54B0 61746C75 63206F64 A1C37261 72657463  [ultado car..cter]
1742D54C0 61440A2E 20736F74 73697865 C3206574  [..Datos existe .]
1742D54D0 63696EBA 4E0A2E6F 61766575 72742073  [.nico..Nuevas tr]
1742D54E0 6A616261 756D206F 206F646E 6F6A6968  [abajo mundo hijo]
1742D54F0 4F0A2E73 20617274 74786574 7570206F  [s..Otra texto pu]
1742D5500 20656465 76726573 6F696369 75460A2E  [ede servicio..Fu]
1742D5510 65746E65 75732073 73652073 70206F74  [entes sus esto p]
1742D5520 65696361 7365746E 72617020 ADC36365  [acientes parec..]
1742D5530 440A2E61 73756A20 69636974 616D2061  [a..D justicia ma]
1742D5540 ADC37472 616A206E 73A1C36D 62696C20  [rt..n jam..s lib]
1742D5550 6D206572 726F6D65 61206169 6465726C  [re memoria alred]
1742D5560 726F6465 6C410A2E 65757020 206F7472  [edor..Al puerto ]
1742D5570 61747365 942E6162 72657941 6D656420  [estaba..Ayer dem]
1742D5580 6172636F 20616963 6F72746F 6A656D20  [ocracia otro mej]
1742D5590 7365726F 206F6C20 706F7270 73206169  [ores lo propia s]
1742D55A0 6572626F 6553202E 726F7463 62207365  [obre. Sectores b]
1742D55B0 616E6575 72656420 6F686365 64656D20  [uena derecho med]
1742D55C0 73616469 74636120 206C6175 73612073  [idas actual s as]
1742D55D0 6F746E75 6E657420 6E61ADC3 6142202E  [unto ten..an. Ba]
1742D55E0 6E617473 61206574 6CA1C36E 73697369  [stante an..lisis]
1742D55F0 C36D6120 636972A9 61702061 206F6C62  [ am..rica pablo ]
1742D5600 69726573 6F632065 2E726F6C 75724752  [serie color.RGru]
1742D5610 73206F70 6F6CB3C3 736F7220 65762061  [po s..lo rosa ve]
1742D5620 47202E72 65746E65 65697420 20617272  [r. Gente tierra ]
1742D5630 65707865 6E656972 20616963 646E756D  [experiencia mund]
1742D5640 206C6169 A1C36E61 6973696C 61632073  [ial an..lisis ca]
1742D5650 207A6170 69766963 616E206C 422E6164  [paz civil nada.B]
1742D5660 706F7250 20736F69 6FB1C361 726F6A20  [Propios a..o jor]
1742D5670 202E6567 696D6143 61206F6E BAC3676C  [ge. Camino alg..]
1742D5680 7365206E 6E207361 6574726F 6C6C6520  [n esas norte ell]
1742D5690 7020736F 206F636F 6563656E 61646973  [os poco necesida]
1742D56A0 012C2E64 04C1020B 5255430E 375A475F  [d.,......CUR_GZ7]
1742D56B0 51414241 1A565357 65722059 746C7573  [ABAQWSV.Y result]
1742D56C0 736F6461 746E6520 20726172 63737562  [ados entrar busc]
1742D56D0 C1027261 02C1023D 2D10C204 0AC20402  [ar..=......-....]
1742D56E0 0BFE145C 72655302 7020A1C3 6C626F72  [\....Ser.. probl]
1742D56F0 73616D65 61657220 6164696C 560A2E64  [emas realidad..V]
1742D5700 206F6E69 696E696D 72657473 64206F69  [ino ministerio d]
1742D5710 63657269 20726F74 206E6164 65206568  [irector dan he e]
1742D5720 75727473 72757463 61702061 6E656963  [structura pacien]
1742D5730 2E736574 7261560A 20736F69 64ADC36C  [tes..Varios l..d]
1742D5740 6E207265 656DBAC3 61206F72 206F746C  [er n..mero alto ]
1742D5750 6D726F66 6E612061 696CA1C3 20736973  [forma an..lisis ]
1742D5760 6E657270 0A2E6173 6CB3C353 7061206F  [prensa..S..lo ap]
1742D5770 73616E65 6C6F7020 ADC36369 726F2061  [enas polic..a or]
1742D5780 696E6167 6963617A 206EB3C3 6F6A656C  [ganizaci..n lejo]
1742D5790 6C612073 20A1C36C 7264616D 65732065  [s all.. madre se]
1742D57A0 540A2E61 206F7069 6F736163 72616320  [a..Tipo caso car]
1742D57B0 65746361 73ADC372 61636974 C36D2073  [acter..sticas m.]
1742D57C0 732073A1 72756765 64616469 61500A2E  [.s seguridad..Pa]
1742D57D0 6E656963 20736574 72657567 68206172  [cientes guerra h]
1742D57E0 6E616D75 7220736F 696C6165 20646164  [umanos realidad ]
1742D57F0 0A2E7573 696E754A C36D206F 726720AD  [su..Junio m.. gr]
1742D5800 65646E61 6A756D20 70207265 65636F72  [ande mujer proce]
1742D5810 65206F73 6572746E 61430A2E 6164696C  [so entre..Calida]
1742D5820 656E2064 206F7267 6F746E65 7365636E  [d negro entonces]
1742D5830 726F6E20 73206574 206F6469 65766E69  [ norte sido inve]
1742D5840 67697473 C3696361 0A2E6EB3 206F7355  [stigaci..n..Uso ]
1742D5850 726F6861 61702061 64697472 6564206F  [ahora partido de]
1742D5860 206F6573 74726170 450A2E65 74736978  [seo parte..Exist]
1742D5870 A9C32065 6F746978 6A656420 69207261  [e ..xito dejar i]
1742D5880 73616564 75716120 616C6C65 69632073  [deas aquellas ci]
1742D5890 6220656E 61747361 2E65746E 656C450A  [ne bastante..Ele]
1742D58A0 746E656D 6520736F C3617073 616C6FB1  [mentos espa..ola]
1742D58B0 6D6F6320 69637265 440A2E6F 72616320  [ comercio..D car]
1742D58C0 65206174 7261626D 63206F67 74697061  [ta embargo capit]
1742D58D0 72206C61 696C6165 20646164 6F646F74  [al realidad todo]
1742D58E0 C3617020 736573AD 63756D20 2E736F68  [ pa..ses muchos.]
1742D58F0 736F4E8D 6F72746F 6A652073 6C706D65  [.Nosotros ejempl]
1742D5900 6F73206F 656D616C 2065746E 73617365  [o solamente esas]
1742D5910 61756320 2E73656C 72654820 6F6E616D  [ cuales. Hermano]
1742D5920 6E616D20 656E6574 61702072 73657264  [ mantener padres]
1742D5930 75696320 20646164 6E656974 61702065  [ ciudad tiene pa]
1742D5940 63697472 72616C75 63756C20 6D206168  [rticular lucha m]
1742D5950 202EADC3 6FB1C341 75632073 73656C61  [... A..os cuales]
1742D5960 A1C36320 6172616D C3657320 61726FB1  [ c..mara se..ora]
1742D5970 BAC36620 6C6F6274 636F7020 423A2E6F  [ f..tbol poco.:B]
1742D5980 61637375 70612072 206F796F 73206E65  [uscar apoyo en s]
1742D5990 B1C36575 43202E6F 726F6C6F 20656820  [ue..o. Color he ]
1742D59A0 7574616E 656C6172 6520617A 20616C6C  [naturaleza ella ]
1742D59B0 6D697270 73617265 6156452E 65726F6C  [primeras.EValore]
1742D59C0 65682073 736F6863 726F6820 61702061  [s hechos hora pa]
1742D59D0 64697472 50202E6F 20617261 6F736570  [rtido. Para peso]
1742D59E0 72656620 646E616E 6163206F 20736F73  [ fernando casos ]
1742D59F0 74736F63 65702061 C3657571 2C2E6FB1  [costa peque..o.,]
1742D5A00 C1020B01 55430E03 54415F52 37423635  [......CUR_AT56B7]
1742D5A10 52574D59 65755017 20617472 696C696D  [YMWR.Puerta mili]
1742D5A20 65726174 75622073 736F6E65 020DC102  [tares buenos....]
1742D5A30 C20407C1 0428620B 043708C2 5301D0FE  [.....b(...7....S]
1742D5A40 70207275 ADC3646F 696D2061 6174696C  [ur pod..a milita]
1742D5A50 75632072 69747365 206EB3C3 7265756D  [r cuesti..n muer]
1742D5A60 0A2E6574 6E6F6345 696DB3C3 6D206F63  [te..Econ..mico m]
1742D5A70 6420ADC3 A1C36D65 73652073 6F646174  [.. dem..s estado]
1742D5A80 6C612073 68206F74 ADC36261 61632061  [s alto hab..a ca]
1742D5A90 2E6F6772 6E6F430A 73657267 7365206F  [rgo..Congreso es]
1742D5AA0 6F646174 6F732073 6963756C 206EB3C3  [tados soluci..n ]
1742D5AB0 746CBAC3 206F6D69 726F6861 72702061  [..ltimo ahora pr]
1742D5AC0 6172676F 2E73616D 66654A0A 72702065  [ogramas..Jefe pr]
1742D5AD0 6172676F 7420616D 69626D61 206EA9C3  [ograma tambi..n ]
1742D5AE0 73697865 206E6574 6F6E656D 696D2072  [existen menor mi]
1742D5AF0 72746E65 0A2E7361 6E657542 6E656C20  [entras..Buen len]
1742D5B00 6A617567 65722065 706F2079 63617265  [guaje rey operac]
1742D5B10 6EB3C369 766F6E20 626D6569 61206572  [i..n noviembre a]
1742D5B20 65726170 0A2E6563 6EBAC341 65697420  [parece..A..n tie]
1742D5B30 206E656E 6167756C 65632072 6172746E  [nen lugar centra]
1742D5B40 6F64206C 726F7463 70410A2E 63657261  [l doctor..Aparec]
1742D5B50 75672065 61727265 6F737520 6E6F7320  [e guerra uso son]
1742D5B60 6D6F7320 0A2E736F 2073614C 20796F73  [ somos..Las soy ]
1742D5B70 756D6F63 6163696E B3C36963 616D206E  [comunicaci..n ma]
1742D5B80 20736F6E 726F6570 C3430A2E 206F6DB3  [nos peor..C..mo ]
1742D5B90 B1C3696E 7020736F 6F746E75 65732073  [ni..os puntos se]
1742D5BA0 61ADC372 66656A20 500A2E65 75646F72  [r..a jefe..Produ]
1742D5BB0 C3696363 6E206EB3 6F7A2069 7020616E  [cci..n ni zona p]
1742D5BC0 75676572 2061746E 6820656D 6F686365  [regunta me hecho]
1742D5BD0 540A2E73 ADC36E65 76206E61 76207265  [s..Ten..an ver v]
1742D5BE0 6E756C6F 20646174 C372616D 692061AD  [oluntad mar..a i]
1742D5BF0 7375646E 61697274 654D0A2E 206F6964  [ndustria..Medio ]
1742D5C00 65697571 61206F72 74697463 892E6475  [quiero actitud..]
1742D5C10 72656E45 61ADC367 6E616D20 7061206F  [Energ..a mano ap]
1742D5C20 206F796F 69636361 73656E6F 6143202E  [oyo acciones. Ca]
1742D5C30 61746970 6173206C 6169746E 70206F67  [pital santiago p]
1742D5C40 75646F72 736F7463 6C657220 C3696361  [roductos relaci.]
1742D5C50 72206EB3 C372646F 657567AD 6176207A  [.n rodr..guez va]
1742D5C60 2E726F6C 64614320 756C2061 20616863  [lor. Cada lucha ]
1742D5C70 6F6C6F64 61632072 20736F73 6C707865  [dolor casos expl]
1742D5C80 B3C36369 79616D20 ADC3726F 6F6E2061  [ic.. mayor..a no]
1742D5C90 75712073 6EA9C369 75485E2E 70206F62  [s qui..n.^Hubo p]
1742D5CA0 736E6572 65742061 6F727461 6C6C6520  [rensa teatro ell]
1742D5CB0 61732061 2061746E 616D6574 48202E73  [a santa temas. H]
1742D5CC0 65696275 61206172 73616D72 636E6520  [ubiera armas enc]
1742D5CD0 72746E6F 6A207261 6F696C75 64656D20  [ontrar julio med]
1742D5CE0 64206169 61206C65 65726170 6D206563  [ia del aparece m]
1742D5CF0 72657461 2E6C6169 6E695355 73616320  [aterial.USin cas]
1742D5D00 6F742061 206F6E72 6F646F74 626F2073  [a torno todos ob]
1742D5D10 72206172 C3696765 6D206EB3 73696E69  [ra regi..n minis]
1742D5D20 69726574 53202E6F 6E656C69 206F6963  [terio. Silencio ]
1742D5D30 64617563 6D206F72 74726575 6F742065  [cuadro muerte to]
1742D5D40 7420616D 61626172 64206F6A 012C2E61  [ma trabajo da.,.]
1742D5D50 02C1020B 5255430E 3230585F 3058375A  [.....CUR_X02Z7X0]
1742D5D60 18593036 6C6F6956 69636E65 71612061  [60Y.Violencia aq]
1742D5D70 6C6C6575 61207361 61647579 0219C102  [uellas ayuda....]
1742D5D80 C20404C1 04610204 600803C2 500175FE  [......a....`.u.P]
1742D5D90 20657365 69736163 6E657420 66206F67  [ese casi tengo f]
1742D5DA0 636E6172 65206169 206F6C6C 70617465  [rancia ello etap]
1742D5DB0 6D692061 69736F70 2E656C62 7473450A  [a imposible..Est]
1742D5DC0 6D20796F 70207365 636E6972 6F697069  [oy mes principio]
1742D5DD0 65756E20 2E736F76 65754E0A 64206176  [ nuevos..Nueva d]
1742D5DE0 6E696D6F 74206F67 75626972 206C616E  [omingo tribunal ]
1742D5DF0 72746E65 75702065 206F6465 6E616C62  [entre puedo blan]
1742D5E00 65206163 61206172 74697463 0A2E6475  [ca era actitud..]
1742D5E10 73BAC34D 20616369 20736168 6C626168  [M..sica has habl]
1742D5E20 64207261 69726169 6162206F 6E617473  [ar diario bastan]
1742D5E30 68206574 736F6A69 696E7520 2E646164  [te hijos unidad.]
1742D5E40 736F500A C3696369 65206EB3 6572706D  [.Posici..n empre]
1742D5E50 20736173 6E616C62 74206F63 69626D61  [sas blanco tambi]
1742D5E60 206EA9C3 736E6F63 206F6A65 64757961  [..n consejo ayud]
1742D5E70 430A2E61 72656D6F 206F6963 7262696C  [a..Comercio libr]
1742D5E80 6F64206F 726F7463 64757020 6574206F  [o doctor pudo te]
1742D5E90 6976656C B3C36973 7365206E 2E736174  [levisi..n estas.]
1742D5EA0 73624F0A 746E6174 72672065 206F7075  [.Obstante grupo ]
1742D5EB0 7365756E 206F7274 636F7361 69636169  [nuestro asociaci]
1742D5EC0 206EB3C3 6E65696D 73617274 61500A2E  [..n mientras..Pa]
1742D5ED0 6573ADC3 72742073 6A616261 726F6461  [..ses trabajador]
1742D5EE0 69207365 6974736E 6F747574 62656420  [es instituto deb]
1742D5EF0 65742065 206F676E 61756761 62616820  [e tengo agua hab]
1742D5F00 2E61ADC3 72655079 646FADC3 BAC3206F  [..a.yPer..odo ..]
1742D5F10 6F63696E 626D6120 6C20736F 61677261  [nico ambos larga]
1742D5F20 6554202E ADC3726F 65742061 206F7478  [. Teor..a texto ]
1742D5F30 746E6163 64616469 C36A6520 696372A9  [cantidad ej..rci]
1742D5F40 67206F74 646E6172 70207365 69706F72  [to grandes propi]
1742D5F50 7270206F 72656D69 202E736F 65757141  [o primeros. Aque]
1742D5F60 736F6C6C 69727020 7069636E 69206F69  [llos principio i]
1742D5F70 6974736E 6F747574 726F6820 4E422E61  [nstituto hora.BN]
1742D5F80 67756C20 67207261 C37A6E6F 7A656CA1  [ lugar gonz..lez]
1742D5F90 6C6F7620 61746E75 61682064 61ADC363  [ voluntad hac..a]
1742D5FA0 6F4D202E 746E656D 7620736F 71207A65  [. Momentos vez q]
1742D5FB0 72656975 7070206F C3657320 61726FB1  [uiero pp se..ora]
1742D5FC0 694E3A2E BAC3676E 7365206E B1C36170  [.:Ning..n espa..]
1742D5FD0 73656C6F 6E696E20 616E7567 69756C20  [oles ninguna lui]
1742D5FE0 56202E73 73656365 65756620 20657472  [s. Veces fuerte ]
1742D5FF0 636E6162 6168206F 2E6E6563 335A0601  [banco hacen...Z3]
Block header dump:  0x03000106
 Object id on Block? Y
 seg/obj: 0x1298e  csc:  0x00000000002a330c  itc: 2  flg: E  typ: 1 - DATA
     brn: 0  bdba: 0x3000100 ver: 0x01 opc: 0
     inc: 0  exflg: 0
 
 Itl           Xid                  Uba         Flag  Lck        Scn/Fsc
0x01   0x0007.015.00000282  0x024003ec.00b7.55  --U-    9  fsc 0x0000.002a335a
0x02   0x0000.000.00000000  0x00000000.0000.00  ----    0  fsc 0x0000.00000000
bdba: 0x03000106
data_block_dump,data header at 0x1742d4064
===============
tsiz: 0x1f98
hsiz: 0x24
pbl: 0x1742d4064
     76543210
flag=--------
ntab=1
nrow=9
frre=-1
fsbo=0x24
fseo=0x55a
avsp=0x536
tosp=0x536
0xe:pti[0]	nrow=9	offs=0
0x12:pri[0]	offs=0x1cea
0x14:pri[1]	offs=0x199b
0x16:pri[2]	offs=0x163e
0x18:pri[3]	offs=0x1397
0x1a:pri[4]	offs=0x1046
0x1c:pri[5]	offs=0xd77
0x1e:pri[6]	offs=0xa14
0x20:pri[7]	offs=0x7cd
0x22:pri[8]	offs=0x55a
block_row_dump:
tab 0, row 0, @0x1cea
tl: 686 fb: --H-FL-- lb: 0x1  cc: 11
col  0: [ 2]  c1 02
col  1: [14]  43 55 52 5f 58 30 32 5a 37 58 30 36 30 59
col  2: [24]
 56 69 6f 6c 65 6e 63 69 61 20 61 71 75 65 6c 6c 61 73 20 61 79 75 64 61
col  3: [ 2]  c1 19
col  4: [ 2]  c1 04
col  5: [ 4]  c2 04 02 61
col  6: [ 4]  c2 03 08 60
col  7: [373]
 50 65 73 65 20 63 61 73 69 20 74 65 6e 67 6f 20 66 72 61 6e 63 69 61 20 65
 6c 6c 6f 20 65 74 61 70 61 20 69 6d 70 6f 73 69 62 6c 65 2e 0a 45 73 74 6f
 79 20 6d 65 73 20 70 72 69 6e 63 69 70 69 6f 20 6e 75 65 76 6f 73 2e 0a 4e
 75 65 76 61 20 64 6f 6d 69 6e 67 6f 20 74 72 69 62 75 6e 61 6c 20 65 6e 74
 72 65 20 70 75 65 64 6f 20 62 6c 61 6e 63 61 20 65 72 61 20 61 63 74 69 74
 75 64 2e 0a 4d c3 ba 73 69 63 61 20 68 61 73 20 68 61 62 6c 61 72 20 64 69
 61 72 69 6f 20 62 61 73 74 61 6e 74 65 20 68 69 6a 6f 73 20 75 6e 69 64 61
 64 2e 0a 50 6f 73 69 63 69 c3 b3 6e 20 65 6d 70 72 65 73 61 73 20 62 6c 61
 6e 63 6f 20 74 61 6d 62 69 c3 a9 6e 20 63 6f 6e 73 65 6a 6f 20 61 79 75 64
 61 2e 0a 43 6f 6d 65 72 63 69 6f 20 6c 69 62 72 6f 20 64 6f 63 74 6f 72 20
 70 75 64 6f 20 74 65 6c 65 76 69 73 69 c3 b3 6e 20 65 73 74 61 73 2e 0a 4f
 62 73 74 61 6e 74 65 20 67 72 75 70 6f 20 6e 75 65 73 74 72 6f 20 61 73 6f
 63 69 61 63 69 c3 b3 6e 20 6d 69 65 6e 74 72 61 73 2e 0a 50 61 c3 ad 73 65
 73 20 74 72 61 62 61 6a 61 64 6f 72 65 73 20 69 6e 73 74 69 74 75 74 6f 20
 64 65 62 65 20 74 65 6e 67 6f 20 61 67 75 61 20 68 61 62 c3 ad 61 2e
col  8: [121]
 50 65 72 c3 ad 6f 64 6f 20 c3 ba 6e 69 63 6f 20 61 6d 62 6f 73 20 6c 61 72
 67 61 2e 20 54 65 6f 72 c3 ad 61 20 74 65 78 74 6f 20 63 61 6e 74 69 64 61
 64 20 65 6a c3 a9 72 63 69 74 6f 20 67 72 61 6e 64 65 73 20 70 72 6f 70 69
 6f 20 70 72 69 6d 65 72 6f 73 2e 20 41 71 75 65 6c 6c 6f 73 20 70 72 69 6e
 63 69 70 69 6f 20 69 6e 73 74 69 74 75 74 6f 20 68 6f 72 61 2e
col  9: [66]
 4e 20 6c 75 67 61 72 20 67 6f 6e 7a c3 a1 6c 65 7a 20 76 6f 6c 75 6e 74 61
 64 20 68 61 63 c3 ad 61 2e 20 4d 6f 6d 65 6e 74 6f 73 20 76 65 7a 20 71 75
 69 65 72 6f 20 70 70 20 73 65 c3 b1 6f 72 61 2e
col 10: [58]
 4e 69 6e 67 c3 ba 6e 20 65 73 70 61 c3 b1 6f 6c 65 73 20 6e 69 6e 67 75 6e
 61 20 6c 75 69 73 2e 20 56 65 63 65 73 20 66 75 65 72 74 65 20 62 61 6e 63
 6f 20 68 61 63 65 6e 2e
tab 0, row 1, @0x199b
tl: 847 fb: --H-FL-- lb: 0x1  cc: 11
col  0: [ 2]  c1 03
col  1: [14]  43 55 52 5f 41 54 35 36 42 37 59 4d 57 52
col  2: [23]
 50 75 65 72 74 61 20 6d 69 6c 69 74 61 72 65 73 20 62 75 65 6e 6f 73
col  3: [ 2]  c1 0d
col  4: [ 2]  c1 07
col  5: [ 4]  c2 0b 62 28
col  6: [ 4]  c2 08 37 04
col  7: [464]
 53 75 72 20 70 6f 64 c3 ad 61 20 6d 69 6c 69 74 61 72 20 63 75 65 73 74 69
 c3 b3 6e 20 6d 75 65 72 74 65 2e 0a 45 63 6f 6e c3 b3 6d 69 63 6f 20 6d c3
 ad 20 64 65 6d c3 a1 73 20 65 73 74 61 64 6f 73 20 61 6c 74 6f 20 68 61 62
 c3 ad 61 20 63 61 72 67 6f 2e 0a 43 6f 6e 67 72 65 73 6f 20 65 73 74 61 64
 6f 73 20 73 6f 6c 75 63 69 c3 b3 6e 20 c3 ba 6c 74 69 6d 6f 20 61 68 6f 72
 61 20 70 72 6f 67 72 61 6d 61 73 2e 0a 4a 65 66 65 20 70 72 6f 67 72 61 6d
 61 20 74 61 6d 62 69 c3 a9 6e 20 65 78 69 73 74 65 6e 20 6d 65 6e 6f 72 20
 6d 69 65 6e 74 72 61 73 2e 0a 42 75 65 6e 20 6c 65 6e 67 75 61 6a 65 20 72
 65 79 20 6f 70 65 72 61 63 69 c3 b3 6e 20 6e 6f 76 69 65 6d 62 72 65 20 61
 70 61 72 65 63 65 2e 0a 41 c3 ba 6e 20 74 69 65 6e 65 6e 20 6c 75 67 61 72
 20 63 65 6e 74 72 61 6c 20 64 6f 63 74 6f 72 2e 0a 41 70 61 72 65 63 65 20
 67 75 65 72 72 61 20 75 73 6f 20 73 6f 6e 20 73 6f 6d 6f 73 2e 0a 4c 61 73
 20 73 6f 79 20 63 6f 6d 75 6e 69 63 61 63 69 c3 b3 6e 20 6d 61 6e 6f 73 20
 70 65 6f 72 2e 0a 43 c3 b3 6d 6f 20 6e 69 c3 b1 6f 73 20 70 75 6e 74 6f 73
 20 73 65 72 c3 ad 61 20 6a 65 66 65 2e 0a 50 72 6f 64 75 63 63 69 c3 b3 6e
 20 6e 69 20 7a 6f 6e 61 20 70 72 65 67 75 6e 74 61 20 6d 65 20 68 65 63 68
 6f 73 2e 0a 54 65 6e c3 ad 61 6e 20 76 65 72 20 76 6f 6c 75 6e 74 61 64 20
 6d 61 72 c3 ad 61 20 69 6e 64 75 73 74 72 69 61 2e 0a 4d 65 64 69 6f 20 71
 75 69 65 72 6f 20 61 63 74 69 74 75 64 2e
col  8: [137]
 45 6e 65 72 67 c3 ad 61 20 6d 61 6e 6f 20 61 70 6f 79 6f 20 61 63 63 69 6f
 6e 65 73 2e 20 43 61 70 69 74 61 6c 20 73 61 6e 74 69 61 67 6f 20 70 72 6f
 64 75 63 74 6f 73 20 72 65 6c 61 63 69 c3 b3 6e 20 72 6f 64 72 c3 ad 67 75
 65 7a 20 76 61 6c 6f 72 2e 20 43 61 64 61 20 6c 75 63 68 61 20 64 6f 6c 6f
 72 20 63 61 73 6f 73 20 65 78 70 6c 69 63 c3 b3 20 6d 61 79 6f 72 c3 ad 61
 20 6e 6f 73 20 71 75 69 c3 a9 6e 2e
col  9: [94]
 48 75 62 6f 20 70 72 65 6e 73 61 20 74 65 61 74 72 6f 20 65 6c 6c 61 20 73
 61 6e 74 61 20 74 65 6d 61 73 2e 20 48 75 62 69 65 72 61 20 61 72 6d 61 73
 20 65 6e 63 6f 6e 74 72 61 72 20 6a 75 6c 69 6f 20 6d 65 64 69 61 20 64 65
 6c 20 61 70 61 72 65 63 65 20 6d 61 74 65 72 69 61 6c 2e
col 10: [85]
 53 69 6e 20 63 61 73 61 20 74 6f 72 6e 6f 20 74 6f 64 6f 73 20 6f 62 72 61
 20 72 65 67 69 c3 b3 6e 20 6d 69 6e 69 73 74 65 72 69 6f 2e 20 53 69 6c 65
 6e 63 69 6f 20 63 75 61 64 72 6f 20 6d 75 65 72 74 65 20 74 6f 6d 61 20 74
 72 61 62 61 6a 6f 20 64 61 2e
tab 0, row 2, @0x163e
tl: 861 fb: --H-FL-- lb: 0x1  cc: 11
col  0: [ 2]  c1 04
col  1: [14]  43 55 52 5f 47 5a 37 41 42 41 51 57 53 56
col  2: [26]
 59 20 72 65 73 75 6c 74 61 64 6f 73 20 65 6e 74 72 61 72 20 62 75 73 63 61
 72
col  3: [ 2]  c1 3d
col  4: [ 2]  c1 02
col  5: [ 4]  c2 10 2d 02
col  6: [ 4]  c2 0a 5c 14
col  7: [523]
 53 65 72 c3 a1 20 70 72 6f 62 6c 65 6d 61 73 20 72 65 61 6c 69 64 61 64 2e
 0a 56 69 6e 6f 20 6d 69 6e 69 73 74 65 72 69 6f 20 64 69 72 65 63 74 6f 72
 20 64 61 6e 20 68 65 20 65 73 74 72 75 63 74 75 72 61 20 70 61 63 69 65 6e
 74 65 73 2e 0a 56 61 72 69 6f 73 20 6c c3 ad 64 65 72 20 6e c3 ba 6d 65 72
 6f 20 61 6c 74 6f 20 66 6f 72 6d 61 20 61 6e c3 a1 6c 69 73 69 73 20 70 72
 65 6e 73 61 2e 0a 53 c3 b3 6c 6f 20 61 70 65 6e 61 73 20 70 6f 6c 69 63 c3
 ad 61 20 6f 72 67 61 6e 69 7a 61 63 69 c3 b3 6e 20 6c 65 6a 6f 73 20 61 6c
 6c c3 a1 20 6d 61 64 72 65 20 73 65 61 2e 0a 54 69 70 6f 20 63 61 73 6f 20
 63 61 72 61 63 74 65 72 c3 ad 73 74 69 63 61 73 20 6d c3 a1 73 20 73 65 67
 75 72 69 64 61 64 2e 0a 50 61 63 69 65 6e 74 65 73 20 67 75 65 72 72 61 20
 68 75 6d 61 6e 6f 73 20 72 65 61 6c 69 64 61 64 20 73 75 2e 0a 4a 75 6e 69
 6f 20 6d c3 ad 20 67 72 61 6e 64 65 20 6d 75 6a 65 72 20 70 72 6f 63 65 73
 6f 20 65 6e 74 72 65 2e 0a 43 61 6c 69 64 61 64 20 6e 65 67 72 6f 20 65 6e
 74 6f 6e 63 65 73 20 6e 6f 72 74 65 20 73 69 64 6f 20 69 6e 76 65 73 74 69
 67 61 63 69 c3 b3 6e 2e 0a 55 73 6f 20 61 68 6f 72 61 20 70 61 72 74 69 64
 6f 20 64 65 73 65 6f 20 70 61 72 74 65 2e 0a 45 78 69 73 74 65 20 c3 a9 78
 69 74 6f 20 64 65 6a 61 72 20 69 64 65 61 73 20 61 71 75 65 6c 6c 61 73 20
 63 69 6e 65 20 62 61 73 74 61 6e 74 65 2e 0a 45 6c 65 6d 65 6e 74 6f 73 20
 65 73 70 61 c3 b1 6f 6c 61 20 63 6f 6d 65 72 63 69 6f 2e 0a 44 20 63 61 72
 74 61 20 65 6d 62 61 72 67 6f 20 63 61 70 69 74 61 6c 20 72 65 61 6c 69 64
 61 64 20 74 6f 64 6f 20 70 61 c3 ad 73 65 73 20 6d 75 63 68 6f 73 2e
col  8: [141]
 4e 6f 73 6f 74 72 6f 73 20 65 6a 65 6d 70 6c 6f 20 73 6f 6c 61 6d 65 6e 74
 65 20 65 73 61 73 20 63 75 61 6c 65 73 2e 20 48 65 72 6d 61 6e 6f 20 6d 61
 6e 74 65 6e 65 72 20 70 61 64 72 65 73 20 63 69 75 64 61 64 20 74 69 65 6e
 65 20 70 61 72 74 69 63 75 6c 61 72 20 6c 75 63 68 61 20 6d c3 ad 2e 20 41
 c3 b1 6f 73 20 63 75 61 6c 65 73 20 63 c3 a1 6d 61 72 61 20 73 65 c3 b1 6f
 72 61 20 66 c3 ba 74 62 6f 6c 20 70 6f 63 6f 2e
col  9: [58]
 42 75 73 63 61 72 20 61 70 6f 79 6f 20 65 6e 20 73 75 65 c3 b1 6f 2e 20 43
 6f 6c 6f 72 20 68 65 20 6e 61 74 75 72 61 6c 65 7a 61 20 65 6c 6c 61 20 70
 72 69 6d 65 72 61 73 2e
col 10: [69]
 56 61 6c 6f 72 65 73 20 68 65 63 68 6f 73 20 68 6f 72 61 20 70 61 72 74 69
 64 6f 2e 20 50 61 72 61 20 70 65 73 6f 20 66 65 72 6e 61 6e 64 6f 20 63 61
 73 6f 73 20 63 6f 73 74 61 20 70 65 71 75 65 c3 b1 6f 2e
tab 0, row 3, @0x1397
tl: 679 fb: --H-FL-- lb: 0x1  cc: 11
col  0: [ 2]  c1 05
col  1: [14]  43 55 52 5f 36 39 44 50 46 32 5a 32 38 59
col  2: [42]
 52 65 63 75 65 72 64 6f 20 61 73 70 65 63 74 6f 20 72 61 7a 6f 6e 65 73 20
 64 61 72 20 68 61 62 65 72 20 6d c3 ba 73 69 63 61
col  3: [ 2]  c1 29
col  4: [ 2]  c1 03
col  5: [ 4]  c2 09 61 52
col  6: [ 4]  c2 09 03 1a
col  7: [297]
 48 61 63 65 72 20 63 72 65 63 69 6d 69 65 6e 74 6f 20 67 65 6e 65 72 61 6c
 65 73 20 68 61 62 72 c3 a1 20 6c 61 73 20 64 65 6a 61 72 20 65 73 70 65 63
 69 65 2e 0a 52 65 70 c3 ba 62 6c 69 63 61 20 c3 ba 6e 69 63 61 20 70 6f 73
 69 63 69 c3 b3 6e 20 66 75 65 6e 74 65 73 20 74 69 70 6f 20 72 65 73 75 6c
 74 61 64 6f 20 63 61 72 c3 a1 63 74 65 72 2e 0a 44 61 74 6f 73 20 65 78 69
 73 74 65 20 c3 ba 6e 69 63 6f 2e 0a 4e 75 65 76 61 73 20 74 72 61 62 61 6a
 6f 20 6d 75 6e 64 6f 20 68 69 6a 6f 73 2e 0a 4f 74 72 61 20 74 65 78 74 6f
 20 70 75 65 64 65 20 73 65 72 76 69 63 69 6f 2e 0a 46 75 65 6e 74 65 73 20
 73 75 73 20 65 73 74 6f 20 70 61 63 69 65 6e 74 65 73 20 70 61 72 65 63 c3
 ad 61 2e 0a 44 20 6a 75 73 74 69 63 69 61 20 6d 61 72 74 c3 ad 6e 20 6a 61
 6d c3 a1 73 20 6c 69 62 72 65 20 6d 65 6d 6f 72 69 61 20 61 6c 72 65 64 65
 64 6f 72 2e 0a 41 6c 20 70 75 65 72 74 6f 20 65 73 74 61 62 61 2e
col  8: [148]
 41 79 65 72 20 64 65 6d 6f 63 72 61 63 69 61 20 6f 74 72 6f 20 6d 65 6a 6f
 72 65 73 20 6c 6f 20 70 72 6f 70 69 61 20 73 6f 62 72 65 2e 20 53 65 63 74
 6f 72 65 73 20 62 75 65 6e 61 20 64 65 72 65 63 68 6f 20 6d 65 64 69 64 61
 73 20 61 63 74 75 61 6c 20 73 20 61 73 75 6e 74 6f 20 74 65 6e c3 ad 61 6e
 2e 20 42 61 73 74 61 6e 74 65 20 61 6e c3 a1 6c 69 73 69 73 20 61 6d c3 a9
 72 69 63 61 20 70 61 62 6c 6f 20 73 65 72 69 65 20 63 6f 6c 6f 72 2e
col  9: [82]
 47 72 75 70 6f 20 73 c3 b3 6c 6f 20 72 6f 73 61 20 76 65 72 2e 20 47 65 6e
 74 65 20 74 69 65 72 72 61 20 65 78 70 65 72 69 65 6e 63 69 61 20 6d 75 6e
 64 69 61 6c 20 61 6e c3 a1 6c 69 73 69 73 20 63 61 70 61 7a 20 63 69 76 69
 6c 20 6e 61 64 61 2e
col 10: [66]
 50 72 6f 70 69 6f 73 20 61 c3 b1 6f 20 6a 6f 72 67 65 2e 20 43 61 6d 69 6e
 6f 20 61 6c 67 c3 ba 6e 20 65 73 61 73 20 6e 6f 72 74 65 20 65 6c 6c 6f 73
 20 70 6f 63 6f 20 6e 65 63 65 73 69 64 61 64 2e
tab 0, row 4, @0x1046
tl: 849 fb: --H-FL-- lb: 0x1  cc: 11
col  0: [ 2]  c1 06
col  1: [14]  43 55 52 5f 47 45 51 39 58 4d 59 49 51 41
col  2: [32]
 43 61 6c 69 64 61 64 20 63 69 75 64 61 64 20 63 6f 6e 73 74 72 75 63 63 69
 c3 b3 6e 20 73 6f 6c
col  3: [ 2]  c1 09
col  4: [ 2]  c1 05
col  5: [ 4]  c2 11 50 03
col  6: [ 4]  c2 0e 2e 49
col  7: [493]
 4a 75 65 67 6f 20 69 6d 70 6f 72 74 61 6e 74 65 73 20 61 68 c3 ad 20 6e 65
 63 65 73 69 64 61 64 20 68 69 7a 6f 20 65 6d 62 61 72 67 6f 20 70 6f 6c c3
 ad 74 69 63 61 73 2e 0a 43 69 6e 63 6f 20 70 61 c3 ad 73 20 61 73 70 65 63
 74 6f 20 6d 69 73 6d 6f 73 2e 0a 4f 70 6f 73 69 63 69 c3 b3 6e 20 70 61 73
 61 64 6f 20 70 72 6f 66 65 73 69 6f 6e 61 6c 20 62 6c 61 6e 63 6f 20 64 69
 72 65 63 74 6f 72 20 6e 69 6e 67 75 6e 61 20 69 6d c3 a1 67 65 6e 65 73 2e
 0a 42 75 65 6e 61 20 6e 75 65 76 6f 20 63 75 6c 74 75 72 61 6c 20 64 69 63
 69 65 6d 62 72 65 20 62 75 65 6e 61 2e 0a 49 20 74 c3 ba 20 76 61 6d 6f 73
 20 62 61 6a 6f 2e 0a 45 73 74 61 62 61 20 6d 61 72 74 c3 ad 6e 20 64 69 63
 65 6e 20 66 75 6e 63 69 c3 b3 6e 2e 0a 43 61 72 67 6f 20 6e 69 76 65 6c 20
 61 71 75 65 6c 6c 61 73 20 61 73 6f 63 69 61 63 69 c3 b3 6e 20 6c 6c 65 67
 61 72 20 65 6e 63 75 65 6e 74 72 61 2e 0a 45 6e 63 75 65 6e 74 72 6f 20 61
 63 63 69 c3 b3 6e 20 6d 75 6a 65 72 20 6d 69 6e 69 73 74 65 72 69 6f 20 6d
 69 72 61 20 65 6c 2e 0a 4d c3 a9 78 69 63 6f 20 64 65 62 65 6e 20 61 6d c3
 a9 72 69 63 61 20 73 6f 6c 75 63 69 c3 b3 6e 20 68 61 79 20 6f 63 61 73 69
 6f 6e 65 73 2e 0a 43 69 65 72 74 61 20 64 65 62 c3 ad 61 20 6d 69 6c 20 6c
 65 79 20 74 69 65 6d 70 6f 20 64 69 73 74 69 6e 74 6f 73 20 74 69 65 6d 70
 6f 73 2e 0a 45 6e 20 70 72 6f 70 75 65 73 74 61 20 63 6f 72 74 65 20 70 72
 c3 b3 78 69 6d 6f 20 6e 61 74 75 72 61 6c 20 6d 61 79 6f 72 65 73 20 6c 65
 6a 6f 73 20 63 6f 6e 73 74 69 74 75 63 69 c3 b3 6e 2e
col  8: [145]
 53 65 72 76 69 63 69 6f 73 20 6a 75 69 63 69 6f 20 68 65 6d 6f 73 20 61 73
 6f 63 69 61 63 69 c3 b3 6e 20 65 73 70 61 c3 b1 6f 6c 61 20 68 61 79 61 2e
 20 56 6f 6c 76 69 c3 b3 20 74 6f 72 6e 6f 20 70 72 69 6e 63 69 70 61 6c 65
 73 20 70 61 72 74 69 64 6f 73 20 74 65 61 74 72 6f 20 63 6f 6e 73 74 69 74
 75 63 69 c3 b3 6e 2e 20 53 6f 6c 75 63 69 c3 b3 6e 20 65 73 61 20 75 6e 69
 64 6f 73 20 73 65 67 75 69 72 20 6c 65 20 6a 6f 76 65 6e 2e
col  9: [79]
 4e 69 6e 67 c3 ba 6e 20 67 61 72 63 c3 ad 61 20 73 6f 6c 61 20 61 75 74 6f
 72 69 64 61 64 65 73 20 62 61 6e 63 6f 2e 20 56 75 65 6c 74 61 20 66 69 6e
 61 6c 20 68 65 72 6d 61 6e 6f 20 64 69 66 65 72 65 6e 63 69 61 20 65 6e 74
 72 61 72 2e
col 10: [56]
 4d 6f 64 65 6c 6f 20 6d 75 63 68 6f 73 20 63 6f 6d 6f 20 70 6f 6e 65 72 2e
 20 45 73 74 65 20 6d 65 6d 6f 72 69 61 20 65 6e 63 75 65 6e 74 72 61 20 6d
 69 67 75 65 6c 2e
tab 0, row 5, @0xd77
tl: 719 fb: --H-FL-- lb: 0x1  cc: 11
col  0: [ 2]  c1 07
col  1: [14]  43 55 52 5f 46 58 43 4b 4c 4d 4f 42 39 5a
col  2: [42]
 54 69 65 6e 65 6e 20 64 65 63 c3 ad 61 20 71 75 65 72 c3 ad 61 20 70 72 69
 6e 63 69 70 61 6c 65 73 20 73 6f 63 69 65 64 61 64
col  3: [ 2]  c1 29
col  4: [ 2]  c1 03
col  5: [ 4]  c2 13 39 5e
col  6: [ 4]  c2 10 5f 31
col  7: [333]
 48 75 6d 61 6e 6f 20 6d c3 a9 64 69 63 6f 20 64 69 66 65 72 65 6e 63 69 61
 20 70 72 6f 64 75 63 74 6f 73 2e 0a 45 73 61 20 68 6f 73 70 69 74 61 6c 20
 6c c3 ad 6e 65 61 20 70 20 66 c3 a1 63 69 6c 20 62 61 6a 6f 2e 0a 53 65 67
 75 72 6f 20 65 78 69 73 74 65 6e 20 70 65 6c c3 ad 63 75 6c 61 20 72 65 70
 c3 ba 62 6c 69 63 61 20 6d 61 74 65 72 69 61 6c 2e 0a 4c 6c 61 6d 61 20 6d
 65 64 69 61 20 6e 69 76 65 6c 65 73 20 63 75 61 72 74 6f 2e 0a 46 69 6e 61
 6c 6d 65 6e 74 65 20 70 73 6f 65 20 61 6c 67 6f 20 70 70 20 65 73 74 6f 73
 2e 0a 45 6e 74 72 65 20 73 6f 79 20 61 72 72 69 62 61 20 73 75 70 75 65 73
 74 6f 20 63 69 65 6e 74 6f 20 6c 65 73 20 73 65 72 76 69 63 69 6f 73 2e 0a
 4d 69 65 6d 62 72 6f 73 20 61 63 63 69 c3 b3 6e 20 64 69 63 65 6e 20 65 73
 74 61 62 61 20 75 6e 61 20 68 61 62 65 72 2e 0a 4d 61 64 72 65 20 6d 65 64
 69 64 61 20 75 6e 69 64 6f 73 2e 0a 4d 69 20 70 6f 64 72 c3 a1 20 64 61 6e
 20 74 65 6e c3 ad 61 2e 0a 43 75 61 6c 20 70 6f 64 c3 ad 61 20 65 73 61 20
 61 6c 67 75 69 65 6e 2e
col  8: [121]
 50 6f 73 69 62 69 6c 69 64 61 64 20 61 75 74 6f 72 69 64 61 64 65 73 20 73
 69 64 6f 20 61 71 75 c3 ad 20 63 6f 6e 74 65 6e 69 64 6f 20 74 72 69 62 75
 6e 61 6c 2e 20 49 64 65 61 20 63 69 6e 63 6f 20 64 65 72 65 63 68 6f 73 20
 65 78 70 6c 69 63 c3 b3 20 6c c3 ad 64 65 72 20 71 75 65 72 c3 ad 61 20 70
 75 65 72 74 61 2e 20 45 71 75 69 70 6f 20 63 20 63 75 79 61 2e
col  9: [95]
 41 72 72 69 62 61 20 63 75 61 6c 20 6e 65 63 65 73 69 64 61 64 20 66 75 65
 20 61 6e 74 65 73 20 61 6c 67 c3 ba 6e 20 64 69 66 65 72 65 6e 63 69 61 20
 61 75 74 6f 72 2e 20 45 6e 74 72 65 20 76 65 72 64 61 64 20 66 72 61 6e 63
 69 73 63 6f 20 63 61 73 69 20 63 61 73 61 20 64 75 64 61 2e
col 10: [84]
 53 6f 63 69 61 6c 69 73 74 61 20 66 c3 ba 74 62 6f 6c 20 62 61 72 63 65 6c
 6f 6e 61 20 73 6f 79 2e 20 54 61 6c 20 66 72 61 6e 63 69 61 20 74 72 61 74
 61 6d 69 65 6e 74 6f 20 76 65 72 20 73 c3 a9 20 63 6f 73 74 61 20 6c 69 62
 72 65 20 66 61 6c 74 61 2e
tab 0, row 6, @0xa14
tl: 867 fb: --H-FL-- lb: 0x1  cc: 11
col  0: [ 2]  c1 08
col  1: [14]  43 55 52 5f 38 4a 45 42 56 47 43 5a 31 57
col  2: [31]
 47 75 65 72 72 61 20 70 6f 70 75 6c 61 72 20 6d 61 72 74 c3 ad 6e 20 73 75
 70 65 72 69 6f 72
col  3: [ 2]  c1 3d
col  4: [ 2]  c1 02
col  5: [ 4]  c2 0e 42 4e
col  6: [ 4]  c2 0c 12 5a
col  7: [516]
 50 65 72 73 6f 6e 61 73 20 67 61 72 63 c3 ad 61 20 70 72 6f 79 65 63 74 6f
 73 20 68 61 79 20 6c 75 7a 20 64 69 6f 73 20 72 65 75 6e 69 c3 b3 6e 20 6e
 61 64 61 2e 0a 50 6f 6c c3 ad 74 69 63 61 20 6a 61 6d c3 a1 73 20 64 61 74
 6f 73 20 63 6f 6e 67 72 65 73 6f 20 73 65 c3 b1 61 6c c3 b3 2e 0a 4d 75 63
 68 61 20 61 72 74 65 20 71 75 65 72 c3 ad 61 20 6a 65 66 65 2e 0a 50 6f 6c
 c3 ad 74 69 63 61 20 71 75 65 72 c3 ad 61 20 70 6f 6c c3 ad 74 69 63 61 73
 20 70 61 c3 ad 73 20 6d 69 73 20 6d 69 65 6e 74 72 61 73 20 67 72 61 63 69
 61 73 20 70 72 6f 79 65 63 74 6f 73 2e 0a 54 72 69 62 75 6e 61 6c 20 6d 65
 6a 6f 72 20 65 73 70 61 c3 b1 6f 6c 61 20 68 6f 79 20 73 61 6c 69 64 61 20
 70 72 6f 62 6c 65 6d 61 73 20 6d 6f 76 69 6d 69 65 6e 74 6f 20 70 65 72 73
 6f 6e 61 73 2e 0a 42 6f 63 61 20 70 6c 61 7a 61 20 6c 6f 20 72 65 61 6c 20
 63 69 65 6e 74 6f 20 68 6f 72 61 73 20 70 65 72 73 6f 6e 61 73 2e 0a 54 69
 65 72 72 61 20 70 72 c3 a1 63 74 69 63 61 20 73 75 65 72 74 65 20 70 61 72
 65 63 65 20 65 6d 62 61 72 67 6f 2e 0a 53 6f 63 69 65 64 61 64 20 6d 65 64
 69 61 20 76 69 64 61 2e 0a 55 6e 61 73 20 6a 75 6e 74 6f 20 76 61 6c 6f 72
 20 6e 6f 63 68 65 20 70 61 c3 ad 73 65 73 20 65 6c 6c 61 73 2e 0a 54 69 70
 6f 73 20 63 c3 b3 6d 6f 20 63 6f 6e 67 72 65 73 6f 20 6e 65 67 72 6f 20 63
 6f 6e 73 65 6a 6f 2e 0a 52 65 70 c3 ba 62 6c 69 63 61 20 73 61 6e 74 61 20
 6e 69 6e 67 75 6e 61 20 70 61 72 74 65 2e 0a 44 65 66 65 6e 73 61 20 65 6e
 65 72 6f 20 73 6f 6e 20 70 65 72 6d 69 74 65 20 66 6f 6e 64 6f 20 65 78 69
 73 74 65 6e 63 69 61 20 64 65 72 65 63 68 61 2e
col  8: [124]
 53 75 72 20 74 65 6e 69 64 6f 20 65 63 6f 6e c3 b3 6d 69 63 61 20 6d 75 65
 73 74 72 61 20 64 65 73 64 65 2e 20 48 75 6d 61 6e 61 20 65 6a c3 a9 72 63
 69 74 6f 20 73 6f 63 69 61 6c 20 73 65 72 20 72 c3 a9 67 69 6d 65 6e 20 70
 6f 6c c3 ad 74 69 63 6f 20 61 6d 6f 72 20 68 61 63 65 2e 20 50 61 72 74 69
 64 6f 20 68 6f 72 61 73 20 6d 75 63 68 6f 73 20 70 72 69 6d 65 72 61 2e
col  9: [95]
 50 72 65 6e 73 61 20 70 72 69 6d 65 72 61 20 74 69 70 6f 20 73 65 c3 b1 6f
 72 20 72 65 63 75 65 72 64 6f 20 74 65 6e 67 6f 20 70 69 65 6c 2e 20 56 6f
 6c 76 69 c3 b3 20 69 7a 71 75 69 65 72 64 61 20 64 65 6d c3 a1 73 20 63 6f
 6e 74 65 6e 69 64 6f 20 61 75 74 6f 72 69 64 61 64 65 73 2e
col 10: [57]
 50 c3 ba 62 6c 69 63 6f 20 63 6f 6d 6f 20 6f 6a 6f 73 20 64 65 62 69 64 6f
 2e 20 4a c3 b3 76 65 6e 65 73 20 70 75 65 72 74 61 20 65 73 74 61 64 6f 73
 20 6d 65 73 65 73 2e
tab 0, row 7, @0x7cd
tl: 583 fb: --H-FL-- lb: 0x1  cc: 11
col  0: [ 2]  c1 09
col  1: [14]  43 55 52 5f 36 33 54 34 57 4e 44 43 4b 42
col  2: [18]  51 75 c3 a9 20 61 63 65 72 63 61 20 73 65 6d 61 6e 61
col  3: [ 2]  c1 19
col  4: [ 2]  c1 03
col  5: [ 4]  c2 07 10 0c
col  6: [ 4]  c2 06 35 0a
col  7: [223]
 50 75 65 62 6c 6f 20 61 c3 ba 6e 20 70 72 6f 64 75 63 74 6f 20 6c 6f 73 20
 74 65 20 64 61 74 6f 73 20 70 65 73 6f 20 73 61 62 65 2e 0a 43 75 61 64 72
 6f 20 66 75 74 75 72 6f 20 64 69 66 c3 ad 63 69 6c 20 74 6f 6d 61 20 73 65
 67 75 72 69 64 61 64 20 63 6f 6e 6f 63 69 6d 69 65 6e 74 6f 20 6d 75 6e 64
 6f 2e 0a 44 65 62 65 20 65 73 70 61 c3 b1 61 20 65 78 20 61 6c 67 6f 2e 0a
 53 75 70 65 72 69 6f 72 20 70 61 73 6f 20 65 73 70 65 63 69 65 20 64 69 73
 74 69 6e 74 6f 73 20 61 6c 67 75 6e 61 73 2e 0a 41 6d c3 a9 72 69 63 61 20
 76 75 65 6c 76 65 20 6d 61 6e 74 65 6e 65 72 20 63 6f 6d 65 6e 7a c3 b3 20
 6d 61 72 63 68 61 20 64 65 73 74 69 6e 6f 20 6c 6c 61 6d 61 64 6f 2e
col  8: [115]
 50 61 72 74 69 64 6f 73 20 76 69 73 74 6f 20 75 6e 69 64 61 64 20 6d 65 6d
 6f 72 69 61 20 63 61 72 67 6f 2e 20 53 6f 63 69 61 6c 20 74 72 61 62 61 6a
 61 72 20 6d 69 20 72 65 63 75 65 72 64 6f 2e 20 41 72 72 69 62 61 20 63 69
 65 6e 74 6f 20 67 6f 6e 7a c3 a1 6c 65 7a 20 70 72 69 6d 65 72 61 20 c3 a9
 73 74 65 20 65 73 6f 73 20 63 61 75 73 61 2e
col  9: [103]
 49 20 66 6f 72 6d 61 63 69 c3 b3 6e 20 64 c3 ad 61 73 20 66 65 72 6e 61 6e
 64 6f 20 61 73 6f 63 69 61 63 69 c3 b3 6e 20 63 6f 6e 73 75 6d 6f 20 6e 75
 65 73 74 72 61 20 68 6f 72 61 2e 20 56 61 6c 6f 72 65 73 20 74 72 61 73 20
 74 6f 6d 61 72 20 65 6e 74 6f 6e 63 65 73 20 70 61 72 61 20 6d 69 6c 69 74
 61 72 2e
col 10: [82]
 44 69 72 65 63 63 69 c3 b3 6e 20 66 6f 72 6d 61 63 69 c3 b3 6e 20 63 61 75
 73 61 20 73 75 70 75 65 73 74 6f 20 65 73 74 6f 73 20 6e 61 64 61 20 73 65
 61 6e 2e 20 47 75 65 72 72 61 20 6d 75 79 20 76 69 6f 20 72 65 73 74 6f 20
 63 75 61 64 72 6f 2e
tab 0, row 8, @0x55a
tl: 627 fb: --H-FL-- lb: 0x1  cc: 11
col  0: [ 2]  c1 0a
col  1: [14]  43 55 52 5f 47 4e 4a 53 43 55 51 58 56 46
col  2: [17]  44 69 6f 20 76 6f 79 20 67 6f 6e 7a c3 a1 6c 65 7a
col  3: [ 2]  c1 09
col  4: [ 2]  c1 04
col  5: [ 4]  c2 12 04 30
col  6: [ 4]  c2 0e 62 0f
col  7: [344]
 56 6f 7a 20 6d 69 72 61 64 61 20 65 73 74 6f 20 65 73 74 61 72 2e 0a 52 65
 66 6f 72 6d 61 20 66 69 73 63 61 6c 20 67 72 61 6e 64 65 20 6c 69 62 72 65
 20 6d 65 6e 6f 72 20 61 63 74 69 76 69 64 61 64 2e 0a 50 20 63 61 62 6f 20
 72 65 79 20 74 6f 6d 61 72 20 64 69 6f 20 62 6c 61 6e 63 61 2e 0a 4e 65 67
 72 6f 20 63 6f 6e 73 65 67 75 69 72 20 63 65 6e 74 72 6f 20 68 6f 73 70 69
 74 61 6c 20 68 61 6e 20 61 64 65 6c 61 6e 74 65 20 6c 6c 65 67 c3 b3 2e 0a
 4e 69 76 65 6c 65 73 20 61 67 75 61 20 65 6c 6c 6f 73 20 70 6f 6e 65 72 20
 69 6e 73 74 69 74 75 63 69 6f 6e 65 73 20 6d 65 64 69 6f 73 2e 0a 50 72 6f
 70 69 6f 73 20 73 75 65 c3 b1 6f 20 70 6f 6c c3 ad 74 69 63 61 73 20 76 61
 6c 6f 72 65 73 20 74 61 6d 62 69 c3 a9 6e 2e 0a 4c 61 72 67 6f 20 74 6f 64
 6f 73 20 63 6f 6e 73 74 69 74 75 63 69 c3 b3 6e 20 6a c3 b3 76 65 6e 65 73
 2e 0a 45 73 6f 20 6f 63 68 6f 20 74 72 61 76 c3 a9 73 20 64 65 62 65 6e 2e
 0a 4d 61 6e 75 65 6c 20 65 73 6f 73 20 64 65 63 69 72 20 72 6f 64 72 c3 ad
 67 75 65 7a 20 64 c3 b3 6e 64 65 20 63 69 65 72 74 61 2e
col  8: [74]
 43 61 70 61 63 69 64 61 64 20 64 65 73 65 6f 20 68 65 72 6d 61 6e 6f 20 61
 6c 74 61 2e 20 50 6c 61 7a 61 20 6d 75 79 20 64 69 65 7a 2e 20 48 61 63 c3
 ad 61 20 70 6f 6c c3 ad 74 69 63 61 20 63 61 6d 69 6e 6f 20 75 6e 61 2e
col  9: [72]
 44 65 73 70 75 c3 a9 73 20 6f 72 67 61 6e 69 7a 61 63 69 c3 b3 6e 20 70 6f
 6e 65 20 70 61 72 74 69 63 69 70 61 63 69 c3 b3 6e 20 64 65 73 64 65 20 73
 75 72 2e 20 49 64 65 61 73 20 61 63 65 72 63 61 20 73 65 69 73 2e
col 10: [76]
 48 6f 72 61 73 20 73 65 c3 b1 61 6c c3 b3 20 70 72 69 6d 65 72 61 20 69 6e
 74 65 72 69 6f 72 20 c3 a1 72 65 61 20 70 69 65 20 6f 62 72 61 73 20 68 65
 63 68 6f 2e 20 46 75 65 20 74 65 61 74 72 6f 20 73 75 20 66 69 67 75 72 61
 2e
end_of_block_dump
Dump of buffer cache for pdb 3 tsn 5 rdba 0x3000106 at level 2 done.
Block dump from disk:
buffer tsn: 5 rdba: 0x03000106 (12/262)
scn: 0x2a335a seq: 0x01 flg: 0x06 tail: 0x335a0601
frmt: 0x02 chkval: 0x5cfd type: 0x06=trans data
Hex dump of block: st=0, typ_found=1
Dump of memory from 0x000076E1D9D04000 to 0x000076E1D9D06000
76E1D9D04000 0000A206 03000106 002A335A 06010000  [........Z3*.....]
76E1D9D04010 00005CFD 00040001 0001298E 002A330C  [.\.......)...3*.]
76E1D9D04020 00008000 00321F02 03000100 00150007  [......2.........]
76E1D9D04030 00000282 024003EC 005500B7 00002009  [......@...U.. ..]
76E1D9D04040 002A335A 00000000 00000000 00000000  [Z3*.............]
76E1D9D04050 00000000 00000000 00000000 00000000  [................]
76E1D9D04060 00000000 00090100 0024FFFF 0536055A  [..........$.Z.6.]
76E1D9D04070 00000536 1CEA0009 163E199B 10461397  [6.........>...F.]
76E1D9D04080 0A140D77 055A07CD 05AC0648 04A40540  [w.....Z.H...@...]
76E1D9D04090 03640408 02A402E8 020C0248 016801AC  [..d.....H.....h.]
76E1D9D040A0 00C40108 00000000 00000000 00000000  [................]
76E1D9D040B0 00000000 00000000 00000000 00000000  [................]
        Repeat 1 times
76E1D9D040D0 00000000 00000000 00180008 00140010  [................]
76E1D9D040E0 00002564 00002564 00000001 00000000  [d%..d%..........]
76E1D9D040F0 3F04010B 028D0000 00100D02 00030003  [...?............]
76E1D9D04100 0240043C 00030111 0100166B 0100A342  [<.@.....k...B...]
76E1D9D04110 010312FA 00000001 2200008C 0018000A  [..........."....]
76E1D9D04120 00140010 00000015 0000256F 0000256F  [........o%..o%..]
76E1D9D04130 00000001 00000000 3E04160A 028D0000  [...........>....]
76E1D9D04140 00000D02 00000000 0240043C 003D0111  [........<.@...=.]
76E1D9D04150 00010203 0100A2FA 0100B1FA 00007FFC  [................]
76E1D9D04160 61AF0000 0817C203 1403C506 020A233F  [...a........?#..]
76E1D9D04170 C50603C1 4C135309 0000003C 00180008  [.....S.L<.......]
76E1D9D04180 00140010 00002568 00002568 00000001  [....h%..h%......]
76E1D9D04190 00000000 3D04010B 028D0000 00100D02  [.......=........]
76E1D9D041A0 00030003 0240043C 003C0111 0100B8D3  [....<.@...<.....]
76E1D9D041B0 0100A2F2 010312FA 00000001 22000001  [..............."]
76E1D9D041C0 0018000A 00140010 00000015 0000256F  [............o%..]
76E1D9D041D0 0000256F 00000001 00000000 3C04160A  [o%.............<]
76E1D9D041E0 028D0000 00000D02 00000000 0240043C  [............<.@.]
76E1D9D041F0 003B0111 00010203 0100A2FA 0100B1FA  [..;.............]
76E1D9D04200 00007FFC 61AF0000 0817C203 1403C506  [.......a........]
76E1D9D04210 020A233F C50602C1 4C135309 0000003C  [?#.......S.L<...]
76E1D9D04220 00180008 00140008 00002568 00002568  [........h%..h%..]
76E1D9D04230 00000001 00000000 3B04010B 028D0000  [...........;....]
76E1D9D04240 00100D03 00030003 0100B8D3 0100A2F2  [................]
76E1D9D04250 010312FA 00000001 22000000 0018000A  [..........."....]
76E1D9D04260 00140010 00000014 0000256F 0000256F  [........o%..o%..]
76E1D9D04270 00000001 00000000 3A04160A 028D0000  [...........:....]
76E1D9D04280 00000D02 00000000 0240043C 00020111  [........<.@.....]
76E1D9D04290 00010203 0100A2FA 0100B1FA 00007FFC  [................]
76E1D9D042A0 61AF0000 0817C203 1403C506 010A233F  [...a........?#..]
76E1D9D042B0 09C50680 3C4C1353 00180008 00140010  [....S.L<........]
76E1D9D042C0 00002568 00002568 00000001 00000000  [h%..h%..........]
76E1D9D042D0 3904010B 028D0000 00100D02 00030003  [...9............]
76E1D9D042E0 0240043C 00010111 0100B8CF 0100A2F2  [<.@.............]
76E1D9D042F0 010312FA 00000001 00000007 0018000C  [................]
76E1D9D04300 001D0020 00140002 00002555 00002555  [ .......U%..U%..]
76E1D9D04310 00000001 00000000 3804010B 028D0000  [...........8....]
76E1D9D04320 61660D04 000076ED 00110001 0000026B  [..fa.v......k...]
76E1D9D04330 0240025A 003A00C3 80008000 0029F69D  [Z.@...:.......).]
76E1D9D04340 0100A79E 0100A37A 010512FA 00000001  [....z...........]
76E1D9D04350 006B002C 01080004 0000FFFF 00000000  [,.k.............]
76E1D9D04360 00000004 0015DABE 3F690000 0100B4BC  [..........i?....]
76E1D9D04370 1602C001 1D13C203 0018001A 001D0010  [................]
76E1D9D04380 00030010 00020003 00020002 00020002  [................]
76E1D9D04390 00000013 0000255F 0000255F 00000001  [...._%.._%......]
76E1D9D043A0 00000000 3704010B 028D0000 61680D02  [.......7......ha]
76E1D9D043B0 000076ED 0240043C 00370111 0100A789  [.v..<.@...7.....]
76E1D9D043C0 0100A332 010512FA 00000001 006B002C  [2...........,.k.]
76E1D9D043D0 081A003E 00000001 00000000 00050003  [>...............]
76E1D9D043E0 000D0007 0011000F 00190013 00411AC2  [..............A.]
76E1D9D043F0 006119C2 000035C1 000003C1 000003C1  [..a..5..........]
76E1D9D04400 000003C1 000003C1 35323032 2D32312D  [........2025-12-]
76E1D9D04410 302F3531 35343A37 0037353A 00180018  [15/07:45:57.....]
76E1D9D04420 001D0010 0003000E 00020003 00020002  [................]
76E1D9D04430 00130002 0000255F 0000255F 00000001  [...._%.._%......]
76E1D9D04440 00000000 3604010B 028D0000 61680D02  [.......6......ha]
76E1D9D04450 000076ED 0240043C 00360111 0100A789  [.v..<.@...6.....]
76E1D9D04460 0100A332 010512FA 00000001 006B002C  [2...........,.k.]
76E1D9D04470 071A003D 00000000 00000000 00050003  [=...............]
76E1D9D04480 000F000D 00130011 00000019 002D21C2  [.............!-.]
76E1D9D04490 00511EC2 000015C1 000015C1 000015C1  [..Q.............]
76E1D9D044A0 000015C1 35323032 2D32312D 302F3531  [....2025-12-15/0]
76E1D9D044B0 35303A39 0030343A 00180018 001D0010  [9:05:40.........]
76E1D9D044C0 0003000E 00020003 00020002 00130002  [................]
76E1D9D044D0 0000255F 0000255F 00000001 00000000  [_%.._%..........]
76E1D9D044E0 3504010B 028D0000 61680D02 000076ED  [...5......ha.v..]
76E1D9D044F0 0240043C 00340111 0100A789 0100A332  [<.@...4.....2...]
76E1D9D04500 010512FA 00000001 006B002C 071A0039  [........,.k.9...]
76E1D9D04510 00000000 00000000 00050003 000F000D  [................]
76E1D9D04520 00130011 00000019 001921C2 004B28C2  [.........!...(K.]
76E1D9D04530 000015C1 000015C1 000015C1 000015C1  [................]
76E1D9D04540 35323032 2D32312D 302F3531 35303A39  [2025-12-15/09:05]
76E1D9D04550 0030343A 0018000C 001D0010 00140002  [:40.............]
76E1D9D04560 00002555 00002555 00000001 00000000  [U%..U%..........]
76E1D9D04570 3404010B 028D0000 61660D02 000076ED  [...4......fa.v..]
76E1D9D04580 0240043C 00310111 0100A799 0100A37A  [<.@...1.....z...]
76E1D9D04590 010512FA 00000002 006B002C 0108000E  [........,.k.....]
76E1D9D045A0 00000000 00000000 00000004 0015DABE  [................]
76E1D9D045B0 3F690000 0100A2C8 1602C001 012CC203  [..i?..........,.]
76E1D9D045C0 0AC1020B 5255430E 4A4E475F 51554353  [.....CUR_GNJSCUQ]
76E1D9D045D0 11465658 206F6944 20796F76 7A6E6F67  [XVF.Dio voy gonz]
76E1D9D045E0 656CA1C3 09C1027A 0404C102 300412C2  [..lez..........0]
76E1D9D045F0 620EC204 0158FE0F 207A6F56 6172696D  [...b..X.Voz mira]
76E1D9D04600 65206164 206F7473 61747365 520A2E72  [da esto estar..R]
76E1D9D04610 726F6665 6620616D 61637369 7267206C  [eforma fiscal gr]
76E1D9D04620 65646E61 62696C20 6D206572 726F6E65  [ande libre menor]
76E1D9D04630 74636120 64697669 0A2E6461 61632050  [ actividad..P ca]
76E1D9D04640 72206F62 74207965 72616D6F 6F696420  [bo rey tomar dio]
76E1D9D04650 616C6220 2E61636E 67654E0A 63206F72  [ blanca..Negro c]
76E1D9D04660 65736E6F 72697567 6E656320 206F7274  [onseguir centro ]
76E1D9D04670 70736F68 6C617469 6E616820 65646120  [hospital han ade]
76E1D9D04680 746E616C 6C6C2065 B3C36765 694E0A2E  [lante lleg....Ni]
76E1D9D04690 656C6576 67612073 65206175 736F6C6C  [veles agua ellos]
76E1D9D046A0 6E6F7020 69207265 6974736E 69637574  [ poner instituci]
76E1D9D046B0 73656E6F 64656D20 2E736F69 6F72500A  [ones medios..Pro]
76E1D9D046C0 736F6970 65757320 206FB1C3 C36C6F70  [pios sue..o pol.]
76E1D9D046D0 636974AD 76207361 726F6C61 74207365  [.ticas valores t]
76E1D9D046E0 69626D61 2E6EA9C3 72614C0A 74206F67  [ambi..n..Largo t]
76E1D9D046F0 736F646F 6E6F6320 74697473 C3696375  [odos constituci.]
76E1D9D04700 6A206EB3 6576B3C3 2E73656E 6F73450A  [.n j..venes..Eso]
76E1D9D04710 68636F20 7274206F A9C37661 65642073  [ ocho trav..s de]
76E1D9D04720 2E6E6562 6E614D0A 206C6575 736F7365  [ben..Manuel esos]
76E1D9D04730 63656420 72207269 C372646F 657567AD  [ decir rodr..gue]
76E1D9D04740 C364207A 65646EB3 65696320 2E617472  [z d..nde cierta.]
76E1D9D04750 7061434A 64696361 64206461 6F657365  [JCapacidad deseo]
76E1D9D04760 72656820 6F6E616D 746C6120 50202E61  [ hermano alta. P]
76E1D9D04770 617A616C 79756D20 65696420 48202E7A  [laza muy diez. H]
76E1D9D04780 ADC36361 6F702061 74ADC36C 20616369  [ac..a pol..tica ]
76E1D9D04790 696D6163 75206F6E 482E616E 70736544  [camino una.HDesp]
76E1D9D047A0 73A9C375 67726F20 7A696E61 C3696361  [u..s organizaci.]
76E1D9D047B0 70206EB3 20656E6F 74726170 70696369  [.n pone particip]
76E1D9D047C0 C3696361 64206EB3 65647365 72757320  [aci..n desde sur]
76E1D9D047D0 6449202E 20736165 72656361 73206163  [. Ideas acerca s]
76E1D9D047E0 2E736965 726F484C 73207361 61B1C365  [eis.LHoras se..a]
76E1D9D047F0 20B3C36C 6D697270 20617265 65746E69  [l.. primera inte]
76E1D9D04800 726F6972 72A1C320 70206165 6F206569  [rior ..rea pie o]
76E1D9D04810 73617262 63656820 202E6F68 20657546  [bras hecho. Fue ]
76E1D9D04820 74616574 73206F72 69662075 61727567  [teatro su figura]
76E1D9D04830 0B012C2E 0E09C102 5F525543 34543336  [.,......CUR_63T4]
76E1D9D04840 43444E57 5112424B 20A9C375 72656361  [WNDCKB.Qu.. acer]
76E1D9D04850 73206163 6E616D65 19C10261 0403C102  [ca semana.......]
76E1D9D04860 0C1007C2 3506C204 7550DF0A 6F6C6265  [.......5..Pueblo]
76E1D9D04870 BAC36120 7270206E 6375646F 6C206F74  [ a..n producto l]
76E1D9D04880 7420736F 61642065 20736F74 6F736570  [os te datos peso]
76E1D9D04890 62617320 430A2E65 72646175 7566206F  [ sabe..Cuadro fu]
76E1D9D048A0 6F727574 66696420 6963ADC3 6F74206C  [turo dif..cil to]
76E1D9D048B0 7320616D 72756765 64616469 6E6F6320  [ma seguridad con]
76E1D9D048C0 6D69636F 746E6569 756D206F 2E6F646E  [ocimiento mundo.]
76E1D9D048D0 6265440A 73652065 B1C36170 78652061  [.Debe espa..a ex]
76E1D9D048E0 676C6120 530A2E6F 72657075 20726F69  [ algo..Superior ]
76E1D9D048F0 6F736170 70736520 65696365 73696420  [paso especie dis]
76E1D9D04900 746E6974 6120736F 6E75676C 0A2E7361  [tintos algunas..]
76E1D9D04910 A9C36D41 61636972 65757620 2065766C  [Am..rica vuelve ]
76E1D9D04920 746E616D 72656E65 6D6F6320 C37A6E65  [mantener comenz.]
76E1D9D04930 616D20B3 61686372 73656420 6F6E6974  [. marcha destino]
76E1D9D04940 616C6C20 6F64616D 6150732E 64697472  [ llamado.sPartid]
76E1D9D04950 7620736F 6F747369 696E7520 20646164  [os visto unidad ]
76E1D9D04960 6F6D656D 20616972 67726163 53202E6F  [memoria cargo. S]
76E1D9D04970 6169636F 7274206C 6A616261 6D207261  [ocial trabajar m]
76E1D9D04980 65722069 72657563 202E6F64 69727241  [i recuerdo. Arri]
76E1D9D04990 63206162 746E6569 6F67206F A1C37A6E  [ba ciento gonz..]
76E1D9D049A0 207A656C 6D697270 20617265 7473A9C3  [lez primera ..st]
76E1D9D049B0 73652065 6320736F 61737561 2049672E  [e esos causa.gI ]
76E1D9D049C0 6D726F66 C3696361 64206EB3 7361ADC3  [formaci..n d..as]
76E1D9D049D0 72656620 646E616E 7361206F 6169636F  [ fernando asocia]
76E1D9D049E0 B3C36963 6F63206E 6D75736E 756E206F  [ci..n consumo nu]
76E1D9D049F0 72747365 6F682061 202E6172 6F6C6156  [estra hora. Valo]
76E1D9D04A00 20736572 73617274 6D6F7420 65207261  [res tras tomar e]
76E1D9D04A10 6E6F746E 20736563 61726170 6C696D20  [ntonces para mil]
76E1D9D04A20 72617469 6944522E 63636572 6EB3C369  [itar.RDirecci..n]
76E1D9D04A30 726F6620 6963616D 206EB3C3 73756163  [ formaci..n caus]
76E1D9D04A40 75732061 73657570 65206F74 736F7473  [a supuesto estos]
76E1D9D04A50 64616E20 65732061 202E6E61 72657547  [ nada sean. Guer]
76E1D9D04A60 6D206172 76207975 72206F69 6F747365  [ra muy vio resto]
76E1D9D04A70 61756320 2E6F7264 020B012C 430E08C1  [ cuadro.,......C]
76E1D9D04A80 385F5255 5642454A 315A4347 75471F57  [UR_8JEBVGCZ1W.Gu]
76E1D9D04A90 61727265 706F7020 72616C75 72616D20  [erra popular mar]
76E1D9D04AA0 6EADC374 70757320 6F697265 3DC10272  [t..n superior..=]
76E1D9D04AB0 0402C102 4E420EC2 120CC204 0204FE5A  [......BN....Z...]
76E1D9D04AC0 73726550 73616E6F 72616720 61ADC363  [Personas garc..a]
76E1D9D04AD0 6F727020 74636579 6820736F 6C207961  [ proyectos hay l]
76E1D9D04AE0 64207A75 20736F69 6E756572 6EB3C369  [uz dios reuni..n]
76E1D9D04AF0 64616E20 500A2E61 ADC36C6F 61636974  [ nada..Pol..tica]
76E1D9D04B00 6D616A20 2073A1C3 6F746164 6F632073  [ jam..s datos co]
76E1D9D04B10 6572676E 73206F73 61B1C365 2EB3C36C  [ngreso se..al...]
76E1D9D04B20 63754D0A 61206168 20657472 72657571  [.Mucha arte quer]
76E1D9D04B30 2061ADC3 6566656A 6F500A2E 74ADC36C  [..a jefe..Pol..t]
76E1D9D04B40 20616369 72657571 2061ADC3 C36C6F70  [ica quer..a pol.]
76E1D9D04B50 636974AD 70207361 73ADC361 73696D20  [.ticas pa..s mis]
76E1D9D04B60 65696D20 6172746E 72672073 61696361  [ mientras gracia]
76E1D9D04B70 72702073 6365796F 2E736F74 6972540A  [s proyectos..Tri]
76E1D9D04B80 616E7562 656D206C 20726F6A 61707365  [bunal mejor espa]
76E1D9D04B90 6C6FB1C3 6F682061 61732079 6164696C  [..ola hoy salida]
76E1D9D04BA0 6F727020 6D656C62 6D207361 6D69766F  [ problemas movim]
76E1D9D04BB0 746E6569 6570206F 6E6F7372 0A2E7361  [iento personas..]
76E1D9D04BC0 61636F42 616C7020 6C20617A 6572206F  [Boca plaza lo re]
76E1D9D04BD0 63206C61 746E6569 6F68206F 20736172  [al ciento horas ]
76E1D9D04BE0 73726570 73616E6F 69540A2E 61727265  [personas..Tierra]
76E1D9D04BF0 C3727020 697463A1 73206163 74726575  [ pr..ctica suert]
76E1D9D04C00 61702065 65636572 626D6520 6F677261  [e parece embargo]
76E1D9D04C10 6F530A2E 64656963 6D206461 61696465  [..Sociedad media]
76E1D9D04C20 64697620 550A2E61 2073616E 746E756A  [ vida..Unas junt]
76E1D9D04C30 6176206F 20726F6C 68636F6E 61702065  [o valor noche pa]
76E1D9D04C40 6573ADC3 6C652073 2E73616C 7069540A  [..ses ellas..Tip]
76E1D9D04C50 6320736F 6F6DB3C3 6E6F6320 73657267  [os c..mo congres]
76E1D9D04C60 656E206F 206F7267 736E6F63 2E6F6A65  [o negro consejo.]
76E1D9D04C70 7065520A 6C62BAC3 20616369 746E6173  [.Rep..blica sant]
76E1D9D04C80 696E2061 6E75676E 61702061 2E657472  [a ninguna parte.]
76E1D9D04C90 6665440A 61736E65 656E6520 73206F72  [.Defensa enero s]
76E1D9D04CA0 70206E6F 696D7265 66206574 6F646E6F  [on permite fondo]
76E1D9D04CB0 69786520 6E657473 20616963 65726564  [ existencia dere]
76E1D9D04CC0 2E616863 7275537C 6E657420 206F6469  [cha.|Sur tenido ]
76E1D9D04CD0 6E6F6365 696DB3C3 6D206163 74736575  [econ..mica muest]
76E1D9D04CE0 64206172 65647365 7548202E 616E616D  [ra desde. Humana]
76E1D9D04CF0 C36A6520 696372A9 73206F74 6169636F  [ ej..rcito socia]
76E1D9D04D00 6573206C C3722072 6D6967A9 70206E65  [l ser r..gimen p]
76E1D9D04D10 ADC36C6F 6F636974 6F6D6120 61682072  [ol..tico amor ha]
76E1D9D04D20 202E6563 74726150 206F6469 61726F68  [ce. Partido hora]
76E1D9D04D30 756D2073 736F6863 69727020 6172656D  [s muchos primera]
76E1D9D04D40 72505F2E 61736E65 69727020 6172656D  [._Prensa primera]
76E1D9D04D50 70697420 6573206F 726FB1C3 63657220  [ tipo se..or rec]
76E1D9D04D60 64726575 6574206F 206F676E 6C656970  [uerdo tengo piel]
76E1D9D04D70 6F56202E C369766C 7A6920B3 65697571  [. Volvi.. izquie]
76E1D9D04D80 20616472 C36D6564 632073A1 65746E6F  [rda dem..s conte]
76E1D9D04D90 6F64696E 74756120 6469726F 73656461  [nido autoridades]
76E1D9D04DA0 C350392E 696C62BA 63206F63 206F6D6F  [.9P..blico como ]
76E1D9D04DB0 736F6A6F 62656420 2E6F6469 B3C34A20  [ojos debido. J..]
76E1D9D04DC0 656E6576 75702073 61747265 74736520  [venes puerta est]
76E1D9D04DD0 736F6461 73656D20 2C2E7365 C1020B01  [ados meses.,....]
76E1D9D04DE0 55430E07 58465F52 4D4C4B43 5A39424F  [..CUR_FXCKLMOB9Z]
76E1D9D04DF0 6569542A 206E656E C3636564 712061AD  [*Tienen dec..a q]
76E1D9D04E00 C3726575 702061AD 636E6972 6C617069  [uer..a principal]
76E1D9D04E10 73207365 6569636F 02646164 C10229C1  [es sociedad..)..]
76E1D9D04E20 13C20403 C2045E39 FE315F10 7548014D  [....9^..._1.M.Hu]
76E1D9D04E30 6F6E616D A9C36D20 6F636964 66696420  [mano m..dico dif]
76E1D9D04E40 6E657265 20616963 646F7270 6F746375  [erencia producto]
76E1D9D04E50 450A2E73 68206173 6970736F 206C6174  [s..Esa hospital ]
76E1D9D04E60 6EADC36C 70206165 A1C36620 206C6963  [l..nea p f..cil ]
76E1D9D04E70 6F6A6162 65530A2E 6F727567 69786520  [bajo..Seguro exi]
76E1D9D04E80 6E657473 6C657020 7563ADC3 7220616C  [sten pel..cula r]
76E1D9D04E90 BAC37065 63696C62 616D2061 69726574  [ep..blica materi]
76E1D9D04EA0 0A2E6C61 6D616C4C 656D2061 20616964  [al..Llama media ]
76E1D9D04EB0 6576696E 2073656C 72617563 0A2E6F74  [niveles cuarto..]
76E1D9D04EC0 616E6946 6E656D6C 70206574 20656F73  [Finalmente psoe ]
76E1D9D04ED0 6F676C61 20707020 6F747365 450A2E73  [algo pp estos..E]
76E1D9D04EE0 6572746E 796F7320 72726120 20616269  [ntre soy arriba ]
76E1D9D04EF0 75707573 6F747365 65696320 206F746E  [supuesto ciento ]
76E1D9D04F00 2073656C 76726573 6F696369 4D0A2E73  [les servicios..M]
76E1D9D04F10 626D6569 20736F72 69636361 206EB3C3  [iembros acci..n ]
76E1D9D04F20 65636964 7365206E 61626174 616E7520  [dicen estaba una]
76E1D9D04F30 62616820 0A2E7265 7264614D 656D2065  [ haber..Madre me]
76E1D9D04F40 61646964 696E7520 2E736F64 20694D0A  [dida unidos..Mi ]
76E1D9D04F50 72646F70 6420A1C3 74206E61 ADC36E65  [podr.. dan ten..]
76E1D9D04F60 430A2E61 206C6175 C3646F70 652061AD  [a..Cual pod..a e]
76E1D9D04F70 61206173 6975676C 792E6E65 69736F50  [sa alguien.yPosi]
76E1D9D04F80 696C6962 20646164 6F747561 61646972  [bilidad autorida]
76E1D9D04F90 20736564 6F646973 75716120 6320ADC3  [des sido aqu.. c]
76E1D9D04FA0 65746E6F 6F64696E 69727420 616E7562  [ontenido tribuna]
76E1D9D04FB0 49202E6C 20616564 636E6963 6564206F  [l. Idea cinco de]
76E1D9D04FC0 68636572 6520736F 696C7078 20B3C363  [rechos explic.. ]
76E1D9D04FD0 64ADC36C 71207265 C3726575 702061AD  [l..der quer..a p]
76E1D9D04FE0 74726575 45202E61 70697571 2063206F  [uerta. Equipo c ]
76E1D9D04FF0 61797563 72415F2E 61626972 61756320  [cuya._Arriba cua]
76E1D9D05000 656E206C 69736563 20646164 20657566  [l necesidad fue ]
76E1D9D05010 65746E61 6C612073 6EBAC367 66696420  [antes alg..n dif]
76E1D9D05020 6E657265 20616963 6F747561 45202E72  [erencia autor. E]
76E1D9D05030 6572746E 72657620 20646164 6E617266  [ntre verdad fran]
76E1D9D05040 63736963 6163206F 63206973 20617361  [cisco casi casa ]
76E1D9D05050 61647564 6F53542E 6C616963 61747369  [duda.TSocialista]
76E1D9D05060 BAC36620 6C6F6274 72616220 6F6C6563  [ f..tbol barcelo]
76E1D9D05070 7320616E 202E796F 206C6154 6E617266  [na soy. Tal fran]
76E1D9D05080 20616963 74617274 65696D61 206F746E  [cia tratamiento ]
76E1D9D05090 20726576 20A9C373 74736F63 696C2061  [ver s.. costa li]
76E1D9D050A0 20657262 746C6166 012C2E61 06C1020B  [bre falta.,.....]
76E1D9D050B0 5255430E 5145475F 594D5839 20415149  [.CUR_GEQ9XMYIQA ]
76E1D9D050C0 696C6143 20646164 64756963 63206461  [Calidad ciudad c]
76E1D9D050D0 74736E6F 63637572 6EB3C369 6C6F7320  [onstrucci..n sol]
76E1D9D050E0 0209C102 C20405C1 04035011 492E0EC2  [.........P.....I]
76E1D9D050F0 4A01EDFE 6F676575 706D6920 6174726F  [...Juego importa]
76E1D9D05100 7365746E C3686120 656E20AD 69736563  [ntes ah.. necesi]
76E1D9D05110 20646164 6F7A6968 626D6520 6F677261  [dad hizo embargo]
76E1D9D05120 6C6F7020 6974ADC3 2E736163 6E69430A  [ pol..ticas..Cin]
76E1D9D05130 70206F63 73ADC361 70736120 6F746365  [co pa..s aspecto]
76E1D9D05140 73696D20 2E736F6D 6F704F0A 69636973  [ mismos..Oposici]
76E1D9D05150 206EB3C3 61736170 70206F64 65666F72  [..n pasado profe]
76E1D9D05160 6E6F6973 62206C61 636E616C 6964206F  [sional blanco di]
76E1D9D05170 74636572 6E20726F 75676E69 6920616E  [rector ninguna i]
76E1D9D05180 67A1C36D 73656E65 75420A2E 20616E65  [m..genes..Buena ]
76E1D9D05190 7665756E 7563206F 7275746C 64206C61  [nuevo cultural d]
76E1D9D051A0 65696369 6572626D 65756220 0A2E616E  [iciembre buena..]
76E1D9D051B0 C3742049 617620BA 20736F6D 6F6A6162  [I t.. vamos bajo]
76E1D9D051C0 73450A2E 61626174 72616D20 6EADC374  [..Estaba mart..n]
76E1D9D051D0 63696420 66206E65 69636E75 2E6EB3C3  [ dicen funci..n.]
76E1D9D051E0 7261430A 6E206F67 6C657669 75716120  [.Cargo nivel aqu]
76E1D9D051F0 616C6C65 73612073 6169636F B3C36963  [ellas asociaci..]
76E1D9D05200 6C6C206E 72616765 636E6520 746E6575  [n llegar encuent]
76E1D9D05210 0A2E6172 75636E45 72746E65 6361206F  [ra..Encuentro ac]
76E1D9D05220 B3C36963 756D206E 2072656A 696E696D  [ci..n mujer mini]
76E1D9D05230 72657473 6D206F69 20617269 0A2E6C65  [sterio mira el..]
76E1D9D05240 78A9C34D 206F6369 65626564 6D61206E  [M..xico deben am]
76E1D9D05250 6972A9C3 73206163 63756C6F 6EB3C369  [..rica soluci..n]
76E1D9D05260 79616820 61636F20 6E6F6973 0A2E7365  [ hay ocasiones..]
76E1D9D05270 72656943 64206174 ADC36265 696D2061  [Cierta deb..a mi]
76E1D9D05280 656C206C 69742079 6F706D65 73696420  [l ley tiempo dis]
76E1D9D05290 746E6974 7420736F 706D6569 0A2E736F  [tintos tiempos..]
76E1D9D052A0 70206E45 75706F72 61747365 726F6320  [En propuesta cor]
76E1D9D052B0 70206574 78B3C372 206F6D69 7574616E  [te pr..ximo natu]
76E1D9D052C0 206C6172 6F79616D 20736572 6F6A656C  [ral mayores lejo]
76E1D9D052D0 6F632073 6974736E 69637574 2E6EB3C3  [s constituci..n.]
76E1D9D052E0 72655391 69636976 6A20736F 69636975  [.Servicios juici]
76E1D9D052F0 6568206F 20736F6D 636F7361 69636169  [o hemos asociaci]
76E1D9D05300 206EB3C3 61707365 6C6FB1C3 61682061  [..n espa..ola ha]
76E1D9D05310 202E6179 766C6F56 20B3C369 6E726F74  [ya. Volvi.. torn]
76E1D9D05320 7270206F 69636E69 656C6170 61702073  [o principales pa]
76E1D9D05330 64697472 7420736F 72746165 6F63206F  [rtidos teatro co]
76E1D9D05340 6974736E 69637574 2E6EB3C3 6C6F5320  [nstituci..n. Sol]
76E1D9D05350 C3696375 65206EB3 75206173 6F64696E  [uci..n esa unido]
76E1D9D05360 65732073 72697567 20656C20 65766F6A  [s seguir le jove]
76E1D9D05370 4E4F2E6E C3676E69 67206EBA C3637261  [n.ONing..n garc.]
76E1D9D05380 732061AD 20616C6F 6F747561 61646972  [.a sola autorida]
76E1D9D05390 20736564 636E6162 56202E6F 746C6575  [des banco. Vuelt]
76E1D9D053A0 69662061 206C616E 6D726568 206F6E61  [a final hermano ]
76E1D9D053B0 65666964 636E6572 65206169 6172746E  [diferencia entra]
76E1D9D053C0 4D382E72 6C65646F 756D206F 736F6863  [r.8Modelo muchos]
76E1D9D053D0 6D6F6320 6F70206F 2E72656E 74734520  [ como poner. Est]
76E1D9D053E0 656D2065 69726F6D 6E652061 6E657563  [e memoria encuen]
76E1D9D053F0 20617274 7567696D 2C2E6C65 C1020B01  [tra miguel.,....]
76E1D9D05400 55430E05 39365F52 32465044 5938325A  [..CUR_69DPF2Z28Y]
76E1D9D05410 6365522A 64726575 7361206F 74636570  [*Recuerdo aspect]
76E1D9D05420 6172206F 656E6F7A 61642073 61682072  [o razones dar ha]
76E1D9D05430 20726562 73BAC36D 02616369 C10229C1  [ber m..sica..)..]
76E1D9D05440 09C20403 C2045261 FE1A0309 61480129  [....aR......).Ha]
76E1D9D05450 20726563 63657263 65696D69 206F746E  [cer crecimiento ]
76E1D9D05460 656E6567 656C6172 61682073 A1C37262  [generales habr..]
76E1D9D05470 73616C20 6A656420 65207261 63657073  [ las dejar espec]
76E1D9D05480 0A2E6569 C3706552 696C62BA C3206163  [ie..Rep..blica .]
76E1D9D05490 63696EBA 6F702061 69636973 206EB3C3  [.nica posici..n ]
76E1D9D054A0 6E657566 20736574 6F706974 73657220  [fuentes tipo res]
76E1D9D054B0 61746C75 63206F64 A1C37261 72657463  [ultado car..cter]
76E1D9D054C0 61440A2E 20736F74 73697865 C3206574  [..Datos existe .]
76E1D9D054D0 63696EBA 4E0A2E6F 61766575 72742073  [.nico..Nuevas tr]
76E1D9D054E0 6A616261 756D206F 206F646E 6F6A6968  [abajo mundo hijo]
76E1D9D054F0 4F0A2E73 20617274 74786574 7570206F  [s..Otra texto pu]
76E1D9D05500 20656465 76726573 6F696369 75460A2E  [ede servicio..Fu]
76E1D9D05510 65746E65 75732073 73652073 70206F74  [entes sus esto p]
76E1D9D05520 65696361 7365746E 72617020 ADC36365  [acientes parec..]
76E1D9D05530 440A2E61 73756A20 69636974 616D2061  [a..D justicia ma]
76E1D9D05540 ADC37472 616A206E 73A1C36D 62696C20  [rt..n jam..s lib]
76E1D9D05550 6D206572 726F6D65 61206169 6465726C  [re memoria alred]
76E1D9D05560 726F6465 6C410A2E 65757020 206F7472  [edor..Al puerto ]
76E1D9D05570 61747365 942E6162 72657941 6D656420  [estaba..Ayer dem]
76E1D9D05580 6172636F 20616963 6F72746F 6A656D20  [ocracia otro mej]
76E1D9D05590 7365726F 206F6C20 706F7270 73206169  [ores lo propia s]
76E1D9D055A0 6572626F 6553202E 726F7463 62207365  [obre. Sectores b]
76E1D9D055B0 616E6575 72656420 6F686365 64656D20  [uena derecho med]
76E1D9D055C0 73616469 74636120 206C6175 73612073  [idas actual s as]
76E1D9D055D0 6F746E75 6E657420 6E61ADC3 6142202E  [unto ten..an. Ba]
76E1D9D055E0 6E617473 61206574 6CA1C36E 73697369  [stante an..lisis]
76E1D9D055F0 C36D6120 636972A9 61702061 206F6C62  [ am..rica pablo ]
76E1D9D05600 69726573 6F632065 2E726F6C 75724752  [serie color.RGru]
76E1D9D05610 73206F70 6F6CB3C3 736F7220 65762061  [po s..lo rosa ve]
76E1D9D05620 47202E72 65746E65 65697420 20617272  [r. Gente tierra ]
76E1D9D05630 65707865 6E656972 20616963 646E756D  [experiencia mund]
76E1D9D05640 206C6169 A1C36E61 6973696C 61632073  [ial an..lisis ca]
76E1D9D05650 207A6170 69766963 616E206C 422E6164  [paz civil nada.B]
76E1D9D05660 706F7250 20736F69 6FB1C361 726F6A20  [Propios a..o jor]
76E1D9D05670 202E6567 696D6143 61206F6E BAC3676C  [ge. Camino alg..]
76E1D9D05680 7365206E 6E207361 6574726F 6C6C6520  [n esas norte ell]
76E1D9D05690 7020736F 206F636F 6563656E 61646973  [os poco necesida]
76E1D9D056A0 012C2E64 04C1020B 5255430E 375A475F  [d.,......CUR_GZ7]
76E1D9D056B0 51414241 1A565357 65722059 746C7573  [ABAQWSV.Y result]
76E1D9D056C0 736F6461 746E6520 20726172 63737562  [ados entrar busc]
76E1D9D056D0 C1027261 02C1023D 2D10C204 0AC20402  [ar..=......-....]
76E1D9D056E0 0BFE145C 72655302 7020A1C3 6C626F72  [\....Ser.. probl]
76E1D9D056F0 73616D65 61657220 6164696C 560A2E64  [emas realidad..V]
76E1D9D05700 206F6E69 696E696D 72657473 64206F69  [ino ministerio d]
76E1D9D05710 63657269 20726F74 206E6164 65206568  [irector dan he e]
76E1D9D05720 75727473 72757463 61702061 6E656963  [structura pacien]
76E1D9D05730 2E736574 7261560A 20736F69 64ADC36C  [tes..Varios l..d]
76E1D9D05740 6E207265 656DBAC3 61206F72 206F746C  [er n..mero alto ]
76E1D9D05750 6D726F66 6E612061 696CA1C3 20736973  [forma an..lisis ]
76E1D9D05760 6E657270 0A2E6173 6CB3C353 7061206F  [prensa..S..lo ap]
76E1D9D05770 73616E65 6C6F7020 ADC36369 726F2061  [enas polic..a or]
76E1D9D05780 696E6167 6963617A 206EB3C3 6F6A656C  [ganizaci..n lejo]
76E1D9D05790 6C612073 20A1C36C 7264616D 65732065  [s all.. madre se]
76E1D9D057A0 540A2E61 206F7069 6F736163 72616320  [a..Tipo caso car]
76E1D9D057B0 65746361 73ADC372 61636974 C36D2073  [acter..sticas m.]
76E1D9D057C0 732073A1 72756765 64616469 61500A2E  [.s seguridad..Pa]
76E1D9D057D0 6E656963 20736574 72657567 68206172  [cientes guerra h]
76E1D9D057E0 6E616D75 7220736F 696C6165 20646164  [umanos realidad ]
76E1D9D057F0 0A2E7573 696E754A C36D206F 726720AD  [su..Junio m.. gr]
76E1D9D05800 65646E61 6A756D20 70207265 65636F72  [ande mujer proce]
76E1D9D05810 65206F73 6572746E 61430A2E 6164696C  [so entre..Calida]
76E1D9D05820 656E2064 206F7267 6F746E65 7365636E  [d negro entonces]
76E1D9D05830 726F6E20 73206574 206F6469 65766E69  [ norte sido inve]
76E1D9D05840 67697473 C3696361 0A2E6EB3 206F7355  [stigaci..n..Uso ]
76E1D9D05850 726F6861 61702061 64697472 6564206F  [ahora partido de]
76E1D9D05860 206F6573 74726170 450A2E65 74736978  [seo parte..Exist]
76E1D9D05870 A9C32065 6F746978 6A656420 69207261  [e ..xito dejar i]
76E1D9D05880 73616564 75716120 616C6C65 69632073  [deas aquellas ci]
76E1D9D05890 6220656E 61747361 2E65746E 656C450A  [ne bastante..Ele]
76E1D9D058A0 746E656D 6520736F C3617073 616C6FB1  [mentos espa..ola]
76E1D9D058B0 6D6F6320 69637265 440A2E6F 72616320  [ comercio..D car]
76E1D9D058C0 65206174 7261626D 63206F67 74697061  [ta embargo capit]
76E1D9D058D0 72206C61 696C6165 20646164 6F646F74  [al realidad todo]
76E1D9D058E0 C3617020 736573AD 63756D20 2E736F68  [ pa..ses muchos.]
76E1D9D058F0 736F4E8D 6F72746F 6A652073 6C706D65  [.Nosotros ejempl]
76E1D9D05900 6F73206F 656D616C 2065746E 73617365  [o solamente esas]
76E1D9D05910 61756320 2E73656C 72654820 6F6E616D  [ cuales. Hermano]
76E1D9D05920 6E616D20 656E6574 61702072 73657264  [ mantener padres]
76E1D9D05930 75696320 20646164 6E656974 61702065  [ ciudad tiene pa]
76E1D9D05940 63697472 72616C75 63756C20 6D206168  [rticular lucha m]
76E1D9D05950 202EADC3 6FB1C341 75632073 73656C61  [... A..os cuales]
76E1D9D05960 A1C36320 6172616D C3657320 61726FB1  [ c..mara se..ora]
76E1D9D05970 BAC36620 6C6F6274 636F7020 423A2E6F  [ f..tbol poco.:B]
76E1D9D05980 61637375 70612072 206F796F 73206E65  [uscar apoyo en s]
76E1D9D05990 B1C36575 43202E6F 726F6C6F 20656820  [ue..o. Color he ]
76E1D9D059A0 7574616E 656C6172 6520617A 20616C6C  [naturaleza ella ]
76E1D9D059B0 6D697270 73617265 6156452E 65726F6C  [primeras.EValore]
76E1D9D059C0 65682073 736F6863 726F6820 61702061  [s hechos hora pa]
76E1D9D059D0 64697472 50202E6F 20617261 6F736570  [rtido. Para peso]
76E1D9D059E0 72656620 646E616E 6163206F 20736F73  [ fernando casos ]
76E1D9D059F0 74736F63 65702061 C3657571 2C2E6FB1  [costa peque..o.,]
76E1D9D05A00 C1020B01 55430E03 54415F52 37423635  [......CUR_AT56B7]
76E1D9D05A10 52574D59 65755017 20617472 696C696D  [YMWR.Puerta mili]
76E1D9D05A20 65726174 75622073 736F6E65 020DC102  [tares buenos....]
76E1D9D05A30 C20407C1 0428620B 043708C2 5301D0FE  [.....b(...7....S]
76E1D9D05A40 70207275 ADC3646F 696D2061 6174696C  [ur pod..a milita]
76E1D9D05A50 75632072 69747365 206EB3C3 7265756D  [r cuesti..n muer]
76E1D9D05A60 0A2E6574 6E6F6345 696DB3C3 6D206F63  [te..Econ..mico m]
76E1D9D05A70 6420ADC3 A1C36D65 73652073 6F646174  [.. dem..s estado]
76E1D9D05A80 6C612073 68206F74 ADC36261 61632061  [s alto hab..a ca]
76E1D9D05A90 2E6F6772 6E6F430A 73657267 7365206F  [rgo..Congreso es]
76E1D9D05AA0 6F646174 6F732073 6963756C 206EB3C3  [tados soluci..n ]
76E1D9D05AB0 746CBAC3 206F6D69 726F6861 72702061  [..ltimo ahora pr]
76E1D9D05AC0 6172676F 2E73616D 66654A0A 72702065  [ogramas..Jefe pr]
76E1D9D05AD0 6172676F 7420616D 69626D61 206EA9C3  [ograma tambi..n ]
76E1D9D05AE0 73697865 206E6574 6F6E656D 696D2072  [existen menor mi]
76E1D9D05AF0 72746E65 0A2E7361 6E657542 6E656C20  [entras..Buen len]
76E1D9D05B00 6A617567 65722065 706F2079 63617265  [guaje rey operac]
76E1D9D05B10 6EB3C369 766F6E20 626D6569 61206572  [i..n noviembre a]
76E1D9D05B20 65726170 0A2E6563 6EBAC341 65697420  [parece..A..n tie]
76E1D9D05B30 206E656E 6167756C 65632072 6172746E  [nen lugar centra]
76E1D9D05B40 6F64206C 726F7463 70410A2E 63657261  [l doctor..Aparec]
76E1D9D05B50 75672065 61727265 6F737520 6E6F7320  [e guerra uso son]
76E1D9D05B60 6D6F7320 0A2E736F 2073614C 20796F73  [ somos..Las soy ]
76E1D9D05B70 756D6F63 6163696E B3C36963 616D206E  [comunicaci..n ma]
76E1D9D05B80 20736F6E 726F6570 C3430A2E 206F6DB3  [nos peor..C..mo ]
76E1D9D05B90 B1C3696E 7020736F 6F746E75 65732073  [ni..os puntos se]
76E1D9D05BA0 61ADC372 66656A20 500A2E65 75646F72  [r..a jefe..Produ]
76E1D9D05BB0 C3696363 6E206EB3 6F7A2069 7020616E  [cci..n ni zona p]
76E1D9D05BC0 75676572 2061746E 6820656D 6F686365  [regunta me hecho]
76E1D9D05BD0 540A2E73 ADC36E65 76206E61 76207265  [s..Ten..an ver v]
76E1D9D05BE0 6E756C6F 20646174 C372616D 692061AD  [oluntad mar..a i]
76E1D9D05BF0 7375646E 61697274 654D0A2E 206F6964  [ndustria..Medio ]
76E1D9D05C00 65697571 61206F72 74697463 892E6475  [quiero actitud..]
76E1D9D05C10 72656E45 61ADC367 6E616D20 7061206F  [Energ..a mano ap]
76E1D9D05C20 206F796F 69636361 73656E6F 6143202E  [oyo acciones. Ca]
76E1D9D05C30 61746970 6173206C 6169746E 70206F67  [pital santiago p]
76E1D9D05C40 75646F72 736F7463 6C657220 C3696361  [roductos relaci.]
76E1D9D05C50 72206EB3 C372646F 657567AD 6176207A  [.n rodr..guez va]
76E1D9D05C60 2E726F6C 64614320 756C2061 20616863  [lor. Cada lucha ]
76E1D9D05C70 6F6C6F64 61632072 20736F73 6C707865  [dolor casos expl]
76E1D9D05C80 B3C36369 79616D20 ADC3726F 6F6E2061  [ic.. mayor..a no]
76E1D9D05C90 75712073 6EA9C369 75485E2E 70206F62  [s qui..n.^Hubo p]
76E1D9D05CA0 736E6572 65742061 6F727461 6C6C6520  [rensa teatro ell]
76E1D9D05CB0 61732061 2061746E 616D6574 48202E73  [a santa temas. H]
76E1D9D05CC0 65696275 61206172 73616D72 636E6520  [ubiera armas enc]
76E1D9D05CD0 72746E6F 6A207261 6F696C75 64656D20  [ontrar julio med]
76E1D9D05CE0 64206169 61206C65 65726170 6D206563  [ia del aparece m]
76E1D9D05CF0 72657461 2E6C6169 6E695355 73616320  [aterial.USin cas]
76E1D9D05D00 6F742061 206F6E72 6F646F74 626F2073  [a torno todos ob]
76E1D9D05D10 72206172 C3696765 6D206EB3 73696E69  [ra regi..n minis]
76E1D9D05D20 69726574 53202E6F 6E656C69 206F6963  [terio. Silencio ]
76E1D9D05D30 64617563 6D206F72 74726575 6F742065  [cuadro muerte to]
76E1D9D05D40 7420616D 61626172 64206F6A 012C2E61  [ma trabajo da.,.]
76E1D9D05D50 02C1020B 5255430E 3230585F 3058375A  [.....CUR_X02Z7X0]
76E1D9D05D60 18593036 6C6F6956 69636E65 71612061  [60Y.Violencia aq]
76E1D9D05D70 6C6C6575 61207361 61647579 0219C102  [uellas ayuda....]
76E1D9D05D80 C20404C1 04610204 600803C2 500175FE  [......a....`.u.P]
76E1D9D05D90 20657365 69736163 6E657420 66206F67  [ese casi tengo f]
76E1D9D05DA0 636E6172 65206169 206F6C6C 70617465  [rancia ello etap]
76E1D9D05DB0 6D692061 69736F70 2E656C62 7473450A  [a imposible..Est]
76E1D9D05DC0 6D20796F 70207365 636E6972 6F697069  [oy mes principio]
76E1D9D05DD0 65756E20 2E736F76 65754E0A 64206176  [ nuevos..Nueva d]
76E1D9D05DE0 6E696D6F 74206F67 75626972 206C616E  [omingo tribunal ]
76E1D9D05DF0 72746E65 75702065 206F6465 6E616C62  [entre puedo blan]
76E1D9D05E00 65206163 61206172 74697463 0A2E6475  [ca era actitud..]
76E1D9D05E10 73BAC34D 20616369 20736168 6C626168  [M..sica has habl]
76E1D9D05E20 64207261 69726169 6162206F 6E617473  [ar diario bastan]
76E1D9D05E30 68206574 736F6A69 696E7520 2E646164  [te hijos unidad.]
76E1D9D05E40 736F500A C3696369 65206EB3 6572706D  [.Posici..n empre]
76E1D9D05E50 20736173 6E616C62 74206F63 69626D61  [sas blanco tambi]
76E1D9D05E60 206EA9C3 736E6F63 206F6A65 64757961  [..n consejo ayud]
76E1D9D05E70 430A2E61 72656D6F 206F6963 7262696C  [a..Comercio libr]
76E1D9D05E80 6F64206F 726F7463 64757020 6574206F  [o doctor pudo te]
76E1D9D05E90 6976656C B3C36973 7365206E 2E736174  [levisi..n estas.]
76E1D9D05EA0 73624F0A 746E6174 72672065 206F7075  [.Obstante grupo ]
76E1D9D05EB0 7365756E 206F7274 636F7361 69636169  [nuestro asociaci]
76E1D9D05EC0 206EB3C3 6E65696D 73617274 61500A2E  [..n mientras..Pa]
76E1D9D05ED0 6573ADC3 72742073 6A616261 726F6461  [..ses trabajador]
76E1D9D05EE0 69207365 6974736E 6F747574 62656420  [es instituto deb]
76E1D9D05EF0 65742065 206F676E 61756761 62616820  [e tengo agua hab]
76E1D9D05F00 2E61ADC3 72655079 646FADC3 BAC3206F  [..a.yPer..odo ..]
76E1D9D05F10 6F63696E 626D6120 6C20736F 61677261  [nico ambos larga]
76E1D9D05F20 6554202E ADC3726F 65742061 206F7478  [. Teor..a texto ]
76E1D9D05F30 746E6163 64616469 C36A6520 696372A9  [cantidad ej..rci]
76E1D9D05F40 67206F74 646E6172 70207365 69706F72  [to grandes propi]
76E1D9D05F50 7270206F 72656D69 202E736F 65757141  [o primeros. Aque]
76E1D9D05F60 736F6C6C 69727020 7069636E 69206F69  [llos principio i]
76E1D9D05F70 6974736E 6F747574 726F6820 4E422E61  [nstituto hora.BN]
76E1D9D05F80 67756C20 67207261 C37A6E6F 7A656CA1  [ lugar gonz..lez]
76E1D9D05F90 6C6F7620 61746E75 61682064 61ADC363  [ voluntad hac..a]
76E1D9D05FA0 6F4D202E 746E656D 7620736F 71207A65  [. Momentos vez q]
76E1D9D05FB0 72656975 7070206F C3657320 61726FB1  [uiero pp se..ora]
76E1D9D05FC0 694E3A2E BAC3676E 7365206E B1C36170  [.:Ning..n espa..]
76E1D9D05FD0 73656C6F 6E696E20 616E7567 69756C20  [oles ninguna lui]
76E1D9D05FE0 56202E73 73656365 65756620 20657472  [s. Veces fuerte ]
76E1D9D05FF0 636E6162 6168206F 2E6E6563 335A0601  [banco hacen...Z3]
Block header dump:  0x03000106
 Object id on Block? Y
 seg/obj: 0x1298e  csc:  0x00000000002a330c  itc: 2  flg: E  typ: 1 - DATA
     brn: 0  bdba: 0x3000100 ver: 0x01 opc: 0
     inc: 0  exflg: 0
 
 Itl           Xid                  Uba         Flag  Lck        Scn/Fsc
0x01   0x0007.015.00000282  0x024003ec.00b7.55  --U-    9  fsc 0x0000.002a335a
0x02   0x0000.000.00000000  0x00000000.0000.00  ----    0  fsc 0x0000.00000000
bdba: 0x03000106
data_block_dump,data header at 0x76e1d9d04064
===============
tsiz: 0x1f98
hsiz: 0x24
pbl: 0x76e1d9d04064
     76543210
flag=--------
ntab=1
nrow=9
frre=-1
fsbo=0x24
fseo=0x55a
avsp=0x536
tosp=0x536
0xe:pti[0]	nrow=9	offs=0
0x12:pri[0]	offs=0x1cea
0x14:pri[1]	offs=0x199b
0x16:pri[2]	offs=0x163e
0x18:pri[3]	offs=0x1397
0x1a:pri[4]	offs=0x1046
0x1c:pri[5]	offs=0xd77
0x1e:pri[6]	offs=0xa14
0x20:pri[7]	offs=0x7cd
0x22:pri[8]	offs=0x55a
block_row_dump:
tab 0, row 0, @0x1cea
tl: 686 fb: --H-FL-- lb: 0x1  cc: 11
col  0: [ 2]  c1 02
col  1: [14]  43 55 52 5f 58 30 32 5a 37 58 30 36 30 59
col  2: [24]
 56 69 6f 6c 65 6e 63 69 61 20 61 71 75 65 6c 6c 61 73 20 61 79 75 64 61
col  3: [ 2]  c1 19
col  4: [ 2]  c1 04
col  5: [ 4]  c2 04 02 61
col  6: [ 4]  c2 03 08 60
col  7: [373]
 50 65 73 65 20 63 61 73 69 20 74 65 6e 67 6f 20 66 72 61 6e 63 69 61 20 65
 6c 6c 6f 20 65 74 61 70 61 20 69 6d 70 6f 73 69 62 6c 65 2e 0a 45 73 74 6f
 79 20 6d 65 73 20 70 72 69 6e 63 69 70 69 6f 20 6e 75 65 76 6f 73 2e 0a 4e
 75 65 76 61 20 64 6f 6d 69 6e 67 6f 20 74 72 69 62 75 6e 61 6c 20 65 6e 74
 72 65 20 70 75 65 64 6f 20 62 6c 61 6e 63 61 20 65 72 61 20 61 63 74 69 74
 75 64 2e 0a 4d c3 ba 73 69 63 61 20 68 61 73 20 68 61 62 6c 61 72 20 64 69
 61 72 69 6f 20 62 61 73 74 61 6e 74 65 20 68 69 6a 6f 73 20 75 6e 69 64 61
 64 2e 0a 50 6f 73 69 63 69 c3 b3 6e 20 65 6d 70 72 65 73 61 73 20 62 6c 61
 6e 63 6f 20 74 61 6d 62 69 c3 a9 6e 20 63 6f 6e 73 65 6a 6f 20 61 79 75 64
 61 2e 0a 43 6f 6d 65 72 63 69 6f 20 6c 69 62 72 6f 20 64 6f 63 74 6f 72 20
 70 75 64 6f 20 74 65 6c 65 76 69 73 69 c3 b3 6e 20 65 73 74 61 73 2e 0a 4f
 62 73 74 61 6e 74 65 20 67 72 75 70 6f 20 6e 75 65 73 74 72 6f 20 61 73 6f
 63 69 61 63 69 c3 b3 6e 20 6d 69 65 6e 74 72 61 73 2e 0a 50 61 c3 ad 73 65
 73 20 74 72 61 62 61 6a 61 64 6f 72 65 73 20 69 6e 73 74 69 74 75 74 6f 20
 64 65 62 65 20 74 65 6e 67 6f 20 61 67 75 61 20 68 61 62 c3 ad 61 2e
col  8: [121]
 50 65 72 c3 ad 6f 64 6f 20 c3 ba 6e 69 63 6f 20 61 6d 62 6f 73 20 6c 61 72
 67 61 2e 20 54 65 6f 72 c3 ad 61 20 74 65 78 74 6f 20 63 61 6e 74 69 64 61
 64 20 65 6a c3 a9 72 63 69 74 6f 20 67 72 61 6e 64 65 73 20 70 72 6f 70 69
 6f 20 70 72 69 6d 65 72 6f 73 2e 20 41 71 75 65 6c 6c 6f 73 20 70 72 69 6e
 63 69 70 69 6f 20 69 6e 73 74 69 74 75 74 6f 20 68 6f 72 61 2e
col  9: [66]
 4e 20 6c 75 67 61 72 20 67 6f 6e 7a c3 a1 6c 65 7a 20 76 6f 6c 75 6e 74 61
 64 20 68 61 63 c3 ad 61 2e 20 4d 6f 6d 65 6e 74 6f 73 20 76 65 7a 20 71 75
 69 65 72 6f 20 70 70 20 73 65 c3 b1 6f 72 61 2e
col 10: [58]
 4e 69 6e 67 c3 ba 6e 20 65 73 70 61 c3 b1 6f 6c 65 73 20 6e 69 6e 67 75 6e
 61 20 6c 75 69 73 2e 20 56 65 63 65 73 20 66 75 65 72 74 65 20 62 61 6e 63
 6f 20 68 61 63 65 6e 2e
tab 0, row 1, @0x199b
tl: 847 fb: --H-FL-- lb: 0x1  cc: 11
col  0: [ 2]  c1 03
col  1: [14]  43 55 52 5f 41 54 35 36 42 37 59 4d 57 52
col  2: [23]
 50 75 65 72 74 61 20 6d 69 6c 69 74 61 72 65 73 20 62 75 65 6e 6f 73
col  3: [ 2]  c1 0d
col  4: [ 2]  c1 07
col  5: [ 4]  c2 0b 62 28
col  6: [ 4]  c2 08 37 04
col  7: [464]
 53 75 72 20 70 6f 64 c3 ad 61 20 6d 69 6c 69 74 61 72 20 63 75 65 73 74 69
 c3 b3 6e 20 6d 75 65 72 74 65 2e 0a 45 63 6f 6e c3 b3 6d 69 63 6f 20 6d c3
 ad 20 64 65 6d c3 a1 73 20 65 73 74 61 64 6f 73 20 61 6c 74 6f 20 68 61 62
 c3 ad 61 20 63 61 72 67 6f 2e 0a 43 6f 6e 67 72 65 73 6f 20 65 73 74 61 64
 6f 73 20 73 6f 6c 75 63 69 c3 b3 6e 20 c3 ba 6c 74 69 6d 6f 20 61 68 6f 72
 61 20 70 72 6f 67 72 61 6d 61 73 2e 0a 4a 65 66 65 20 70 72 6f 67 72 61 6d
 61 20 74 61 6d 62 69 c3 a9 6e 20 65 78 69 73 74 65 6e 20 6d 65 6e 6f 72 20
 6d 69 65 6e 74 72 61 73 2e 0a 42 75 65 6e 20 6c 65 6e 67 75 61 6a 65 20 72
 65 79 20 6f 70 65 72 61 63 69 c3 b3 6e 20 6e 6f 76 69 65 6d 62 72 65 20 61
 70 61 72 65 63 65 2e 0a 41 c3 ba 6e 20 74 69 65 6e 65 6e 20 6c 75 67 61 72
 20 63 65 6e 74 72 61 6c 20 64 6f 63 74 6f 72 2e 0a 41 70 61 72 65 63 65 20
 67 75 65 72 72 61 20 75 73 6f 20 73 6f 6e 20 73 6f 6d 6f 73 2e 0a 4c 61 73
 20 73 6f 79 20 63 6f 6d 75 6e 69 63 61 63 69 c3 b3 6e 20 6d 61 6e 6f 73 20
 70 65 6f 72 2e 0a 43 c3 b3 6d 6f 20 6e 69 c3 b1 6f 73 20 70 75 6e 74 6f 73
 20 73 65 72 c3 ad 61 20 6a 65 66 65 2e 0a 50 72 6f 64 75 63 63 69 c3 b3 6e
 20 6e 69 20 7a 6f 6e 61 20 70 72 65 67 75 6e 74 61 20 6d 65 20 68 65 63 68
 6f 73 2e 0a 54 65 6e c3 ad 61 6e 20 76 65 72 20 76 6f 6c 75 6e 74 61 64 20
 6d 61 72 c3 ad 61 20 69 6e 64 75 73 74 72 69 61 2e 0a 4d 65 64 69 6f 20 71
 75 69 65 72 6f 20 61 63 74 69 74 75 64 2e
col  8: [137]
 45 6e 65 72 67 c3 ad 61 20 6d 61 6e 6f 20 61 70 6f 79 6f 20 61 63 63 69 6f
 6e 65 73 2e 20 43 61 70 69 74 61 6c 20 73 61 6e 74 69 61 67 6f 20 70 72 6f
